{
  "contractName": "Campaign",
  "abi": [
    {
      "anonymous": false,
      "inputs": [
        {
          "indexed": false,
          "internalType": "uint256",
          "name": "timestamp",
          "type": "uint256"
        }
      ],
      "name": "CampaignClosed",
      "type": "event"
    },
    {
      "anonymous": false,
      "inputs": [
        {
          "indexed": false,
          "internalType": "uint256",
          "name": "totalContribution",
          "type": "uint256"
        },
        {
          "indexed": false,
          "internalType": "uint256",
          "name": "timestamp",
          "type": "uint256"
        }
      ],
      "name": "CampaignFinalaised",
      "type": "event"
    },
    {
      "anonymous": false,
      "inputs": [
        {
          "indexed": false,
          "internalType": "uint256",
          "name": "startTime",
          "type": "uint256"
        }
      ],
      "name": "CampaingStarted",
      "type": "event"
    },
    {
      "anonymous": false,
      "inputs": [
        {
          "indexed": false,
          "internalType": "address",
          "name": "certificate",
          "type": "address"
        }
      ],
      "name": "CertificateDeployed",
      "type": "event"
    },
    {
      "anonymous": false,
      "inputs": [
        {
          "indexed": false,
          "internalType": "address",
          "name": "manager",
          "type": "address"
        },
        {
          "indexed": false,
          "internalType": "uint256",
          "name": "amount",
          "type": "uint256"
        }
      ],
      "name": "ContributionWithdrawen",
      "type": "event"
    },
    {
      "anonymous": false,
      "inputs": [
        {
          "indexed": false,
          "internalType": "uint256",
          "name": "totalContribution",
          "type": "uint256"
        },
        {
          "indexed": false,
          "internalType": "uint256",
          "name": "timestamp",
          "type": "uint256"
        }
      ],
      "name": "MaximumReached",
      "type": "event"
    },
    {
      "anonymous": false,
      "inputs": [
        {
          "indexed": false,
          "internalType": "address",
          "name": "contributor",
          "type": "address"
        },
        {
          "indexed": false,
          "internalType": "uint256",
          "name": "contribution",
          "type": "uint256"
        }
      ],
      "name": "NewContribution",
      "type": "event"
    },
    {
      "anonymous": false,
      "inputs": [
        {
          "indexed": false,
          "internalType": "address",
          "name": "contributor",
          "type": "address"
        },
        {
          "indexed": false,
          "internalType": "uint256",
          "name": "contribution",
          "type": "uint256"
        }
      ],
      "name": "RetrievedContribution",
      "type": "event"
    },
    {
      "anonymous": false,
      "inputs": [
        {
          "indexed": false,
          "internalType": "address",
          "name": "newToken",
          "type": "address"
        }
      ],
      "name": "TokenUpdated",
      "type": "event"
    },
    {
      "anonymous": false,
      "inputs": [
        {
          "indexed": false,
          "internalType": "address",
          "name": "claimedBy",
          "type": "address"
        },
        {
          "indexed": false,
          "internalType": "uint256",
          "name": "claimAmount",
          "type": "uint256"
        }
      ],
      "name": "TokensClaimed",
      "type": "event"
    },
    {
      "inputs": [
        {
          "internalType": "address",
          "name": "",
          "type": "address"
        }
      ],
      "name": "contributors",
      "outputs": [
        {
          "internalType": "uint256",
          "name": "",
          "type": "uint256"
        }
      ],
      "stateMutability": "view",
      "type": "function",
      "constant": true
    },
    {
      "inputs": [],
      "name": "duration",
      "outputs": [
        {
          "internalType": "uint40",
          "name": "",
          "type": "uint40"
        }
      ],
      "stateMutability": "view",
      "type": "function",
      "constant": true
    },
    {
      "inputs": [],
      "name": "hash",
      "outputs": [
        {
          "internalType": "bytes",
          "name": "",
          "type": "bytes"
        }
      ],
      "stateMutability": "view",
      "type": "function",
      "constant": true
    },
    {
      "inputs": [
        {
          "internalType": "address",
          "name": "",
          "type": "address"
        }
      ],
      "name": "haveClaimed",
      "outputs": [
        {
          "internalType": "uint8",
          "name": "",
          "type": "uint8"
        }
      ],
      "stateMutability": "view",
      "type": "function",
      "constant": true
    },
    {
      "inputs": [],
      "name": "isActive",
      "outputs": [
        {
          "internalType": "uint8",
          "name": "",
          "type": "uint8"
        }
      ],
      "stateMutability": "view",
      "type": "function",
      "constant": true
    },
    {
      "inputs": [],
      "name": "isClosed",
      "outputs": [
        {
          "internalType": "uint8",
          "name": "",
          "type": "uint8"
        }
      ],
      "stateMutability": "view",
      "type": "function",
      "constant": true
    },
    {
      "inputs": [],
      "name": "isFunded",
      "outputs": [
        {
          "internalType": "uint8",
          "name": "",
          "type": "uint8"
        }
      ],
      "stateMutability": "view",
      "type": "function",
      "constant": true
    },
    {
      "inputs": [],
      "name": "isMaximumReached",
      "outputs": [
        {
          "internalType": "uint8",
          "name": "",
          "type": "uint8"
        }
      ],
      "stateMutability": "view",
      "type": "function",
      "constant": true
    },
    {
      "inputs": [],
      "name": "isMinimumReached",
      "outputs": [
        {
          "internalType": "uint8",
          "name": "",
          "type": "uint8"
        }
      ],
      "stateMutability": "view",
      "type": "function",
      "constant": true
    },
    {
      "inputs": [],
      "name": "manager",
      "outputs": [
        {
          "internalType": "address",
          "name": "",
          "type": "address"
        }
      ],
      "stateMutability": "view",
      "type": "function",
      "constant": true
    },
    {
      "inputs": [],
      "name": "maximumTarget",
      "outputs": [
        {
          "internalType": "uint256",
          "name": "",
          "type": "uint256"
        }
      ],
      "stateMutability": "view",
      "type": "function",
      "constant": true
    },
    {
      "inputs": [],
      "name": "minimumTarget",
      "outputs": [
        {
          "internalType": "uint256",
          "name": "",
          "type": "uint256"
        }
      ],
      "stateMutability": "view",
      "type": "function",
      "constant": true
    },
    {
      "inputs": [],
      "name": "name",
      "outputs": [
        {
          "internalType": "string",
          "name": "",
          "type": "string"
        }
      ],
      "stateMutability": "view",
      "type": "function",
      "constant": true
    },
    {
      "inputs": [],
      "name": "nbc",
      "outputs": [
        {
          "internalType": "contract NobelCertificate",
          "name": "",
          "type": "address"
        }
      ],
      "stateMutability": "view",
      "type": "function",
      "constant": true
    },
    {
      "inputs": [],
      "name": "price",
      "outputs": [
        {
          "internalType": "uint256",
          "name": "",
          "type": "uint256"
        }
      ],
      "stateMutability": "view",
      "type": "function",
      "constant": true
    },
    {
      "inputs": [],
      "name": "startTime",
      "outputs": [
        {
          "internalType": "uint256",
          "name": "",
          "type": "uint256"
        }
      ],
      "stateMutability": "view",
      "type": "function",
      "constant": true
    },
    {
      "inputs": [],
      "name": "token",
      "outputs": [
        {
          "internalType": "address",
          "name": "",
          "type": "address"
        }
      ],
      "stateMutability": "view",
      "type": "function",
      "constant": true
    },
    {
      "inputs": [],
      "name": "totalCollected",
      "outputs": [
        {
          "internalType": "uint256",
          "name": "",
          "type": "uint256"
        }
      ],
      "stateMutability": "view",
      "type": "function",
      "constant": true
    },
    {
      "inputs": [],
      "name": "totalWithdrawn",
      "outputs": [
        {
          "internalType": "uint256",
          "name": "",
          "type": "uint256"
        }
      ],
      "stateMutability": "view",
      "type": "function",
      "constant": true
    },
    {
      "inputs": [
        {
          "internalType": "string",
          "name": "_name",
          "type": "string"
        },
        {
          "internalType": "address",
          "name": "_manager",
          "type": "address"
        },
        {
          "internalType": "uint24",
          "name": "_duration",
          "type": "uint24"
        },
        {
          "internalType": "uint256",
          "name": "_maximumTarget",
          "type": "uint256"
        },
        {
          "internalType": "uint256",
          "name": "_minimumTarget",
          "type": "uint256"
        },
        {
          "internalType": "bytes",
          "name": "_hash",
          "type": "bytes"
        }
      ],
      "name": "initialize",
      "outputs": [],
      "stateMutability": "nonpayable",
      "type": "function"
    },
    {
      "inputs": [
        {
          "internalType": "address",
          "name": "_token",
          "type": "address"
        },
        {
          "internalType": "uint256",
          "name": "_price",
          "type": "uint256"
        }
      ],
      "name": "setToken",
      "outputs": [],
      "stateMutability": "nonpayable",
      "type": "function"
    },
    {
      "inputs": [],
      "name": "contribute",
      "outputs": [],
      "stateMutability": "payable",
      "type": "function",
      "payable": true
    },
    {
      "inputs": [],
      "name": "retrieveContribution",
      "outputs": [],
      "stateMutability": "nonpayable",
      "type": "function"
    },
    {
      "inputs": [],
      "name": "claimTokens",
      "outputs": [],
      "stateMutability": "nonpayable",
      "type": "function"
    },
    {
      "inputs": [],
      "name": "startCampaign",
      "outputs": [],
      "stateMutability": "nonpayable",
      "type": "function"
    },
    {
      "inputs": [],
      "name": "closeCampaign",
      "outputs": [],
      "stateMutability": "nonpayable",
      "type": "function"
    },
    {
      "inputs": [
        {
          "internalType": "uint256",
          "name": "_amount",
          "type": "uint256"
        }
      ],
      "name": "withdraw",
      "outputs": [],
      "stateMutability": "nonpayable",
      "type": "function"
    }
  ],
  "bytecode": "0x608060405234801561001057600080fd5b50615807806100206000396000f3fe608060405260043610620001c45760003560e01c806348c54b9d1162000103578063a035b1fe1162000097578063d7557f18116200006d578063d7557f1814620005f9578063d7bb99ba1462000613578063e29eb836146200061f578063fc0c546a146200064f57620001c4565b8063a035b1fe146200057f578063a8b78ed014620005af578063c2b6b58c14620005c957620001c4565b806378bf2b5311620000d957806378bf2b5314620004c357806378e9792514620004f15780637c65430314620005215780639f4ad276146200055157620001c4565b806348c54b9d146200045f5780634b31971314620004795780636b95507214620004a957620001c4565b806322f3e2d4116200017b5780632e1a7d4d11620001515780632e1a7d4d146200038d5780633efe431b14620003bb57806342235da614620003ff578063481c6a75146200042f57620001c4565b806322f3e2d414620002fd578063269714dd146200032d5780632a3a6f75146200035d57620001c4565b806306fdde0314620001c9578063072a683214620001f957806309bd5a6014620002295780630fb5a6b414620002595780631a066b8c14620002895780631f6d494214620002b9575b600080fd5b348015620001d657600080fd5b50620001e16200067f565b604051620001f091906200257d565b60405180910390f35b3480156200020657600080fd5b506200021162000715565b604051620002209190620027b5565b60405180910390f35b3480156200023657600080fd5b506200024162000728565b6040516200025091906200253c565b60405180910390f35b3480156200026657600080fd5b5062000271620007be565b60405162000280919062002798565b60405180910390f35b3480156200029657600080fd5b50620002a1620007d5565b604051620002b0919062002560565b60405180910390f35b348015620002c657600080fd5b50620002e56004803603810190620002df919062001e24565b620007fb565b604051620002f491906200274e565b60405180910390f35b3480156200030a57600080fd5b506200031562000813565b604051620003249190620027b5565b60405180910390f35b3480156200033a57600080fd5b506200034562000826565b6040516200035491906200274e565b60405180910390f35b3480156200036a57600080fd5b50620003756200082c565b604051620003849190620027b5565b60405180910390f35b3480156200039a57600080fd5b50620003b96004803603810190620003b3919062001f85565b6200083f565b005b348015620003c857600080fd5b50620003e76004803603810190620003e1919062001e24565b62000a96565b604051620003f69190620027b5565b60405180910390f35b3480156200040c57600080fd5b506200041762000ab6565b6040516200042691906200274e565b60405180910390f35b3480156200043c57600080fd5b506200044762000abc565b604051620004569190620024f2565b60405180910390f35b3480156200046c57600080fd5b506200047762000ae0565b005b3480156200048657600080fd5b506200049162000e26565b604051620004a091906200274e565b60405180910390f35b348015620004b657600080fd5b50620004c162000e2c565b005b348015620004d057600080fd5b50620004ef6004803603810190620004e9919062001e50565b62000fe2565b005b348015620004fe57600080fd5b5062000509620011c6565b6040516200051891906200274e565b60405180910390f35b3480156200052e57600080fd5b5062000539620011cc565b604051620005489190620027b5565b60405180910390f35b3480156200055e57600080fd5b506200057d600480360381019062000577919062001ebd565b620011df565b005b3480156200058c57600080fd5b50620005976200145d565b604051620005a691906200274e565b60405180910390f35b348015620005bc57600080fd5b50620005c762001463565b005b348015620005d657600080fd5b50620005e16200163f565b604051620005f09190620027b5565b60405180910390f35b3480156200060657600080fd5b506200061162001652565b005b6200061d620017c7565b005b3480156200062c57600080fd5b506200063762001b52565b6040516200064691906200274e565b60405180910390f35b3480156200065c57600080fd5b506200066762001b58565b604051620006769190620024f2565b60405180910390f35b600580546200068e9062002afd565b80601f0160208091040260200160405190810160405280929190818152602001828054620006bc9062002afd565b80156200070d5780601f10620006e1576101008083540402835291602001916200070d565b820191906000526020600020905b815481529060010190602001808311620006ef57829003601f168201915b505050505081565b600760169054906101000a900460ff1681565b60068054620007379062002afd565b80601f0160208091040260200160405190810160405280929190818152602001828054620007659062002afd565b8015620007b65780601f106200078a57610100808354040283529160200191620007b6565b820191906000526020600020905b8154815290600101906020018083116200079857829003601f168201915b505050505081565b600460009054906101000a900464ffffffffff1681565b600b60009054906101000a900473ffffffffffffffffffffffffffffffffffffffff1681565b600c6020528060005260406000206000915090505481565b600760149054906101000a900460ff1681565b60015481565b600760179054906101000a900460ff1681565b3373ffffffffffffffffffffffffffffffffffffffff1660008054906101000a900473ffffffffffffffffffffffffffffffffffffffff1673ffffffffffffffffffffffffffffffffffffffff1614620008d0576040517f08c379a0000000000000000000000000000000000000000000000000000000008152600401620008c79062002660565b60405180910390fd5b6001600760169054906101000a900460ff1660ff161480156200091c5750600460009054906101000a900464ffffffffff1664ffffffffff16600854620009189190620028a4565b4210155b6200095e576040517f08c379a0000000000000000000000000000000000000000000000000000000008152600401620009559062002607565b60405180910390fd5b80600a546200096e9190620028a4565b6009541015620009b5576040517f08c379a0000000000000000000000000000000000000000000000000000000008152600401620009ac90620026a4565b60405180910390fd5b80600a6000828254620009c99190620028a4565b9250508190555060008054906101000a900473ffffffffffffffffffffffffffffffffffffffff1673ffffffffffffffffffffffffffffffffffffffff166108fc829081150290604051600060405180830381858888f1935050505015801562000a37573d6000803e3d6000fd5b507f2bbfac779570d910fefe52fe99f6bd0c3595573b24e987a2b42dff4de3eae9f960008054906101000a900473ffffffffffffffffffffffffffffffffffffffff168260405162000a8b9291906200250f565b60405180910390a150565b600d6020528060005260406000206000915054906101000a900460ff1681565b60025481565b60008054906101000a900473ffffffffffffffffffffffffffffffffffffffff1681565b6001600760169054906101000a900460ff1660ff16148062000b2a5750600460009054906101000a900464ffffffffff1664ffffffffff1660085462000b279190620028a4565b42115b62000b6c576040517f08c379a000000000000000000000000000000000000000000000000000000000815260040162000b639062002607565b60405180910390fd5b6001600d60003373ffffffffffffffffffffffffffffffffffffffff1673ffffffffffffffffffffffffffffffffffffffff16815260200190815260200160002060006101000a81548160ff021916908360ff160217905550600760009054906101000a900473ffffffffffffffffffffffffffffffffffffffff1673ffffffffffffffffffffffffffffffffffffffff1663a9059cbb33600354600c60003373ffffffffffffffffffffffffffffffffffffffff1673ffffffffffffffffffffffffffffffffffffffff1681526020019081526020016000205462000c5391906200297d565b6040518363ffffffff1660e01b815260040162000c729291906200250f565b602060405180830381600087803b15801562000c8d57600080fd5b505af115801562000ca2573d6000803e3d6000fd5b505050506040513d601f19601f8201168201806040525081019062000cc8919062001e91565b50600b60009054906101000a900473ffffffffffffffffffffffffffffffffffffffff1673ffffffffffffffffffffffffffffffffffffffff16639e7035cb33600c60003373ffffffffffffffffffffffffffffffffffffffff1673ffffffffffffffffffffffffffffffffffffffff168152602001908152602001600020546040518363ffffffff1660e01b815260040162000d679291906200250f565b600060405180830381600087803b15801562000d8257600080fd5b505af115801562000d97573d6000803e3d6000fd5b505050507f896e034966eaaf1adc54acc0f257056febbd300c9e47182cf761982cf1f5e43033600354600c60003373ffffffffffffffffffffffffffffffffffffffff1673ffffffffffffffffffffffffffffffffffffffff1681526020019081526020016000205462000e0c91906200297d565b60405162000e1c9291906200250f565b60405180910390a1565b600a5481565b6000600760169054906101000a900460ff1660ff16148062000e765750600460009054906101000a900464ffffffffff1664ffffffffff1660085462000e739190620028a4565b42105b62000eb8576040517f08c379a000000000000000000000000000000000000000000000000000000000815260040162000eaf9062002682565b60405180910390fd5b6000600c60003373ffffffffffffffffffffffffffffffffffffffff1673ffffffffffffffffffffffffffffffffffffffff1681526020019081526020016000205490506000600c60003373ffffffffffffffffffffffffffffffffffffffff1673ffffffffffffffffffffffffffffffffffffffff16815260200190815260200160002081905550806009600082825462000f559190620029de565b925050819055503373ffffffffffffffffffffffffffffffffffffffff166108fc829081150290604051600060405180830381858888f1935050505015801562000fa3573d6000803e3d6000fd5b507f06ed93769c47ca76a0305ac7f413fa38d9828e8d09126c700dc277dc00673d7a338260405162000fd79291906200250f565b60405180910390a150565b600073ffffffffffffffffffffffffffffffffffffffff16600760009054906101000a900473ffffffffffffffffffffffffffffffffffffffff1673ffffffffffffffffffffffffffffffffffffffff1614806200108c5750600073ffffffffffffffffffffffffffffffffffffffff1660008054906101000a900473ffffffffffffffffffffffffffffffffffffffff1673ffffffffffffffffffffffffffffffffffffffff16145b620010ce576040517f08c379a0000000000000000000000000000000000000000000000000000000008152600401620010c5906200272c565b60405180910390fd5b600073ffffffffffffffffffffffffffffffffffffffff168273ffffffffffffffffffffffffffffffffffffffff16141562001141576040517f08c379a00000000000000000000000000000000000000000000000000000000081526004016200113890620025a1565b60405180910390fd5b81600760006101000a81548173ffffffffffffffffffffffffffffffffffffffff021916908373ffffffffffffffffffffffffffffffffffffffff160217905550806003819055507f5ba6b30cd4b2f9e9e67f4feb9b9df10d5da3b057598e6901b217b7d590345e3082604051620011ba9190620024f2565b60405180910390a15050565b60085481565b600760189054906101000a900460ff1681565b600073ffffffffffffffffffffffffffffffffffffffff16600760009054906101000a900473ffffffffffffffffffffffffffffffffffffffff1673ffffffffffffffffffffffffffffffffffffffff161480620012895750600073ffffffffffffffffffffffffffffffffffffffff1660008054906101000a900473ffffffffffffffffffffffffffffffffffffffff1673ffffffffffffffffffffffffffffffffffffffff16145b620012cb576040517f08c379a0000000000000000000000000000000000000000000000000000000008152600401620012c2906200272c565b60405180910390fd5b8560059080519060200190620012e392919062001b7e565b50846000806101000a81548173ffffffffffffffffffffffffffffffffffffffff021916908373ffffffffffffffffffffffffffffffffffffffff1602179055508260018190555081600281905550620151808462001343919062002939565b62ffffff16600460006101000a81548164ffffffffff021916908364ffffffffff16021790555080600690805190602001906200138292919062001c0f565b50604051620013919062001ca0565b6200139c9062002629565b604051809103906000f080158015620013b9573d6000803e3d6000fd5b50600b60006101000a81548173ffffffffffffffffffffffffffffffffffffffff021916908373ffffffffffffffffffffffffffffffffffffffff1602179055507fa657cec9417672d3d758b52901072e9e38c05a69d413681b5f9698c0cf9ee1e5600b60009054906101000a900473ffffffffffffffffffffffffffffffffffffffff166040516200144d9190620024f2565b60405180910390a1505050505050565b60035481565b3373ffffffffffffffffffffffffffffffffffffffff1660008054906101000a900473ffffffffffffffffffffffffffffffffffffffff1673ffffffffffffffffffffffffffffffffffffffff1614620014f4576040517f08c379a0000000000000000000000000000000000000000000000000000000008152600401620014eb9062002660565b60405180910390fd5b6000600760149054906101000a900460ff1660ff16146200154c576040517f08c379a00000000000000000000000000000000000000000000000000000000081526004016200154390620026c6565b60405180910390fd5b600073ffffffffffffffffffffffffffffffffffffffff16600760009054906101000a900473ffffffffffffffffffffffffffffffffffffffff1673ffffffffffffffffffffffffffffffffffffffff161415620015e1576040517f08c379a0000000000000000000000000000000000000000000000000000000008152600401620015d8906200270a565b60405180910390fd5b6001600760146101000a81548160ff021916908360ff160217905550426008819055507ff5d743e90555bdd34c2f3ee686c544e7e7fbc9eda297911db4dcb40f9317a829426040516200163591906200274e565b60405180910390a1565b600760159054906101000a900460ff1681565b3373ffffffffffffffffffffffffffffffffffffffff1660008054906101000a900473ffffffffffffffffffffffffffffffffffffffff1673ffffffffffffffffffffffffffffffffffffffff1614620016e3576040517f08c379a0000000000000000000000000000000000000000000000000000000008152600401620016da9062002660565b60405180910390fd5b6000600760169054906101000a900460ff1660ff161480156200172e5750600460009054906101000a900464ffffffffff1664ffffffffff166008546200172b9190620028a4565b42105b62001770576040517f08c379a0000000000000000000000000000000000000000000000000000000008152600401620017679062002682565b60405180910390fd5b6001600760156101000a81548160ff021916908360ff1602179055507f5e6eb33a418de5dbbc17f989f7ae362cdfbb1748c5d603137c767027a354edbc42604051620017bd91906200274e565b60405180910390a1565b6001600760149054906101000a900460ff1660ff16146200181f576040517f08c379a00000000000000000000000000000000000000000000000000000000081526004016200181690620025e5565b60405180910390fd5b6000600760189054906101000a900460ff1660ff161480156200190357506003546001546200184f919062002901565b600760009054906101000a900473ffffffffffffffffffffffffffffffffffffffff1673ffffffffffffffffffffffffffffffffffffffff166370a08231306040518263ffffffff1660e01b8152600401620018ac9190620024f2565b60206040518083038186803b158015620018c557600080fd5b505afa158015620018da573d6000803e3d6000fd5b505050506040513d601f19601f8201168201806040525081019062001900919062001fb1565b10155b1562001926576001600760186101000a81548160ff021916908360ff1602179055505b6001600760189054906101000a900460ff1660ff16146200197e576040517f08c379a00000000000000000000000000000000000000000000000000000000081526004016200197590620026e8565b60405180910390fd5b60015434600954620019919190620028a4565b1115620019d5576040517f08c379a0000000000000000000000000000000000000000000000000000000008152600401620019cc90620025c3565b60405180910390fd5b3460096000828254620019e99190620028a4565b9250508190555034600c60003373ffffffffffffffffffffffffffffffffffffffff1673ffffffffffffffffffffffffffffffffffffffff168152602001908152602001600020600082825462001a419190620028a4565b925050819055507fbdaa686eb6f59012d211a74523da260341c516896e9e5be954163d6ecf26ffa2333460405162001a7b9291906200250f565b60405180910390a16002546009541062001ae9576001600760166101000a81548160ff021916908360ff1602179055507f44c6c0ef2ecc9b145c446a77d0df706da576ff61ef521281d4dd04029e06ad566009544260405162001ae09291906200276b565b60405180910390a15b600154600954141562001b50576001600760176101000a81548160ff021916908360ff1602179055507f0a5a9dbaa3878734104826cc380dee4a93b7fe2dbe76fc270d124df960400c1c6009544260405162001b479291906200276b565b60405180910390a15b565b60095481565b600760009054906101000a900473ffffffffffffffffffffffffffffffffffffffff1681565b82805462001b8c9062002afd565b90600052602060002090601f01602090048101928262001bb0576000855562001bfc565b82601f1062001bcb57805160ff191683800117855562001bfc565b8280016001018555821562001bfc579182015b8281111562001bfb57825182559160200191906001019062001bde565b5b50905062001c0b919062001cae565b5090565b82805462001c1d9062002afd565b90600052602060002090601f01602090048101928262001c41576000855562001c8d565b82601f1062001c5c57805160ff191683800117855562001c8d565b8280016001018555821562001c8d579182015b8281111562001c8c57825182559160200191906001019062001c6f565b5b50905062001c9c919062001cae565b5090565b612b698062002c6983390190565b5b8082111562001cc957600081600090555060010162001caf565b5090565b600062001ce462001cde8462002806565b620027d2565b90508281526020810184848401111562001cfd57600080fd5b62001d0a84828562002ab8565b509392505050565b600062001d2962001d238462002839565b620027d2565b90508281526020810184848401111562001d4257600080fd5b62001d4f84828562002ab8565b509392505050565b60008135905062001d688162002c00565b92915050565b60008151905062001d7f8162002c1a565b92915050565b600082601f83011262001d9757600080fd5b813562001da984826020860162001ccd565b91505092915050565b600082601f83011262001dc457600080fd5b813562001dd684826020860162001d12565b91505092915050565b60008135905062001df08162002c34565b92915050565b60008135905062001e078162002c4e565b92915050565b60008151905062001e1e8162002c4e565b92915050565b60006020828403121562001e3757600080fd5b600062001e478482850162001d57565b91505092915050565b6000806040838503121562001e6457600080fd5b600062001e748582860162001d57565b925050602062001e878582860162001df6565b9150509250929050565b60006020828403121562001ea457600080fd5b600062001eb48482850162001d6e565b91505092915050565b60008060008060008060c0878903121562001ed757600080fd5b600087013567ffffffffffffffff81111562001ef257600080fd5b62001f0089828a0162001db2565b965050602062001f1389828a0162001d57565b955050604062001f2689828a0162001ddf565b945050606062001f3989828a0162001df6565b935050608062001f4c89828a0162001df6565b92505060a087013567ffffffffffffffff81111562001f6a57600080fd5b62001f7889828a0162001d85565b9150509295509295509295565b60006020828403121562001f9857600080fd5b600062001fa88482850162001df6565b91505092915050565b60006020828403121562001fc457600080fd5b600062001fd48482850162001e0d565b91505092915050565b62001fe88162002a19565b82525050565b600062001ffb826200286c565b62002007818562002882565b93506200201981856020860162002ac7565b620020248162002bef565b840191505092915050565b6200203a8162002a90565b82525050565b60006200204d8262002877565b62002059818562002893565b93506200206b81856020860162002ac7565b620020768162002bef565b840191505092915050565b600062002090601e8362002893565b91507f43616d706169676e3a20746f6b656e2063616e6e6f74206265206e756c6c00006000830152602082019050919050565b6000620020d2602d8362002893565b91507f43616d706169676e3a20636f6e747269627574696f6e2065786365656473206d60008301527f6178696d756d20746172676574000000000000000000000000000000000000006020830152604082019050919050565b60006200213a60198362002893565b91507f43616d706169676e3a206e6f74207965742073746172746564000000000000006000830152602082019050919050565b60006200217c602e8362002893565b91507f43616d706169676e3a205468652063616d706169676e2068617665206e6f742060008301527f6265656e2066696e616c697365640000000000000000000000000000000000006020830152604082019050919050565b6000620021e460118362002893565b91507f4e6f62656c2043657274696669636174650000000000000000000000000000006000830152602082019050919050565b600062002226601e8362002893565b91507f43616d706169676e3a206f6e6c794d616e616765722066756e6374696f6e00006000830152602082019050919050565b600062002268602a8362002893565b91507f43616d706169676e3a205468652063616d706169676e2068617665206265656e60008301527f2066696e616c69736564000000000000000000000000000000000000000000006020830152604082019050919050565b6000620022d060038362002893565b91507f4e424300000000000000000000000000000000000000000000000000000000006000830152602082019050919050565b600062002312602d8362002893565b91507f43616d706169676e3a2043616e6e6f74207769746864726177206d6f7265207460008301527f68616e20636f6c6c6563746564000000000000000000000000000000000000006020830152604082019050919050565b60006200237a60198362002893565b91507f43616d706169676e3a20616c72657261647920616374697665000000000000006000830152602082019050919050565b6000620023bc60188362002893565b91507f43616d706169676e3a206e6f74207965742066756e64656400000000000000006000830152602082019050919050565b6000620023fe60248362002893565b91507f43616d706169676e3a20646973747269627574696f6e20746f6b656e206e6f7460008301527f20736574000000000000000000000000000000000000000000000000000000006020830152604082019050919050565b60006200246660268362002893565b91507f43616d706169676e3a20636f6e747261637420616c726561647920696e69746960008301527f616c697a656400000000000000000000000000000000000000000000000000006020830152604082019050919050565b620024ca8162002a68565b82525050565b620024db8162002a72565b82525050565b620024ec8162002a83565b82525050565b600060208201905062002509600083018462001fdd565b92915050565b600060408201905062002526600083018562001fdd565b620025356020830184620024bf565b9392505050565b6000602082019050818103600083015262002558818462001fee565b905092915050565b60006020820190506200257760008301846200202f565b92915050565b6000602082019050818103600083015262002599818462002040565b905092915050565b60006020820190508181036000830152620025bc8162002081565b9050919050565b60006020820190508181036000830152620025de81620020c3565b9050919050565b6000602082019050818103600083015262002600816200212b565b9050919050565b6000602082019050818103600083015262002622816200216d565b9050919050565b600060408201905081810360008301526200264481620021d5565b905081810360208301526200265981620022c1565b9050919050565b600060208201905081810360008301526200267b8162002217565b9050919050565b600060208201905081810360008301526200269d8162002259565b9050919050565b60006020820190508181036000830152620026bf8162002303565b9050919050565b60006020820190508181036000830152620026e1816200236b565b9050919050565b600060208201905081810360008301526200270381620023ad565b9050919050565b600060208201905081810360008301526200272581620023ef565b9050919050565b60006020820190508181036000830152620027478162002457565b9050919050565b6000602082019050620027656000830184620024bf565b92915050565b6000604082019050620027826000830185620024bf565b620027916020830184620024bf565b9392505050565b6000602082019050620027af6000830184620024d0565b92915050565b6000602082019050620027cc6000830184620024e1565b92915050565b6000604051905081810181811067ffffffffffffffff82111715620027fc57620027fb62002bc0565b5b8060405250919050565b600067ffffffffffffffff82111562002824576200282362002bc0565b5b601f19601f8301169050602081019050919050565b600067ffffffffffffffff82111562002857576200285662002bc0565b5b601f19601f8301169050602081019050919050565b600081519050919050565b600081519050919050565b600082825260208201905092915050565b600082825260208201905092915050565b6000620028b18262002a68565b9150620028be8362002a68565b9250827fffffffffffffffffffffffffffffffffffffffffffffffffffffffffffffffff03821115620028f657620028f562002b33565b5b828201905092915050565b60006200290e8262002a68565b91506200291b8362002a68565b9250826200292e576200292d62002b62565b5b828204905092915050565b6000620029468262002a59565b9150620029538362002a59565b92508162ffffff048311821515161562002972576200297162002b33565b5b828202905092915050565b60006200298a8262002a68565b9150620029978362002a68565b9250817fffffffffffffffffffffffffffffffffffffffffffffffffffffffffffffffff0483118215151615620029d357620029d262002b33565b5b828202905092915050565b6000620029eb8262002a68565b9150620029f88362002a68565b92508282101562002a0e5762002a0d62002b33565b5b828203905092915050565b600062002a268262002a39565b9050919050565b60008115159050919050565b600073ffffffffffffffffffffffffffffffffffffffff82169050919050565b600062ffffff82169050919050565b6000819050919050565b600064ffffffffff82169050919050565b600060ff82169050919050565b600062002a9d8262002aa4565b9050919050565b600062002ab18262002a39565b9050919050565b82818337600083830152505050565b60005b8381101562002ae757808201518184015260208101905062002aca565b8381111562002af7576000848401525b50505050565b6000600282049050600182168062002b1657607f821691505b6020821081141562002b2d5762002b2c62002b91565b5b50919050565b7f4e487b7100000000000000000000000000000000000000000000000000000000600052601160045260246000fd5b7f4e487b7100000000000000000000000000000000000000000000000000000000600052601260045260246000fd5b7f4e487b7100000000000000000000000000000000000000000000000000000000600052602260045260246000fd5b7f4e487b7100000000000000000000000000000000000000000000000000000000600052604160045260246000fd5b6000601f19601f8301169050919050565b62002c0b8162002a19565b811462002c1757600080fd5b50565b62002c258162002a2d565b811462002c3157600080fd5b50565b62002c3f8162002a59565b811462002c4b57600080fd5b50565b62002c598162002a68565b811462002c6557600080fd5b5056fe60806040523480156200001157600080fd5b5060405162002b6938038062002b698339818101604052810190620000379190620001d8565b8181816000908051906020019062000051929190620000b6565b5080600190805190602001906200006a929190620000b6565b50505033600760006101000a81548173ffffffffffffffffffffffffffffffffffffffff021916908373ffffffffffffffffffffffffffffffffffffffff16021790555050506200037c565b828054620000c490620002e8565b90600052602060002090601f016020900481019282620000e8576000855562000134565b82601f106200010357805160ff191683800117855562000134565b8280016001018555821562000134579182015b828111156200013357825182559160200191906001019062000116565b5b50905062000143919062000147565b5090565b5b808211156200016257600081600090555060010162000148565b5090565b60006200017d62000177846200027f565b6200024b565b9050828152602081018484840111156200019657600080fd5b620001a3848285620002b2565b509392505050565b600082601f830112620001bd57600080fd5b8151620001cf84826020860162000166565b91505092915050565b60008060408385031215620001ec57600080fd5b600083015167ffffffffffffffff8111156200020757600080fd5b6200021585828601620001ab565b925050602083015167ffffffffffffffff8111156200023357600080fd5b6200024185828601620001ab565b9150509250929050565b6000604051905081810181811067ffffffffffffffff821117156200027557620002746200034d565b5b8060405250919050565b600067ffffffffffffffff8211156200029d576200029c6200034d565b5b601f19601f8301169050602081019050919050565b60005b83811015620002d2578082015181840152602081019050620002b5565b83811115620002e2576000848401525b50505050565b600060028204905060018216806200030157607f821691505b602082108114156200031857620003176200031e565b5b50919050565b7f4e487b7100000000000000000000000000000000000000000000000000000000600052602260045260246000fd5b7f4e487b7100000000000000000000000000000000000000000000000000000000600052604160045260246000fd5b6127dd806200038c6000396000f3fe608060405234801561001057600080fd5b506004361061010b5760003560e01c806370a08231116100a2578063a22cb46511610071578063a22cb465146102ca578063b88d4fde146102e6578063c87b56dd14610302578063e985e9c514610332578063f77c4791146103625761010b565b806370a0823114610242578063714cff561461027257806395d89b41146102905780639e7035cb146102ae5761010b565b80631cee0700116100de5780631cee0700146101aa57806323b872dd146101da57806342842e0e146101f65780636352211e146102125761010b565b806301ffc9a71461011057806306fdde0314610140578063081812fc1461015e578063095ea7b31461018e575b600080fd5b61012a60048036038101906101259190611a27565b610380565b6040516101379190612185565b60405180910390f35b610148610462565b60405161015591906121a0565b60405180910390f35b61017860048036038101906101739190611a79565b6104f4565b604051610185919061211e565b60405180910390f35b6101a860048036038101906101a391906119eb565b610579565b005b6101c460048036038101906101bf9190611a79565b610691565b6040516101d191906123a2565b60405180910390f35b6101f460048036038101906101ef91906118e5565b6106a9565b005b610210600480360381019061020b91906118e5565b610709565b005b61022c60048036038101906102279190611a79565b610729565b604051610239919061211e565b60405180910390f35b61025c60048036038101906102579190611880565b6107db565b60405161026991906123a2565b60405180910390f35b61027a610893565b60405161028791906123a2565b60405180910390f35b610298610899565b6040516102a591906121a0565b60405180910390f35b6102c860048036038101906102c391906119eb565b61092b565b005b6102e460048036038101906102df91906119af565b6109fd565b005b61030060048036038101906102fb9190611934565b610b7e565b005b61031c60048036038101906103179190611a79565b610be0565b60405161032991906121a0565b60405180910390f35b61034c600480360381019061034791906118a9565b610c87565b6040516103599190612185565b60405180910390f35b61036a610d1b565b604051610377919061211e565b60405180910390f35b60007f80ac58cd000000000000000000000000000000000000000000000000000000007bffffffffffffffffffffffffffffffffffffffffffffffffffffffff1916827bffffffffffffffffffffffffffffffffffffffffffffffffffffffff1916148061044b57507f5b5e139f000000000000000000000000000000000000000000000000000000007bffffffffffffffffffffffffffffffffffffffffffffffffffffffff1916827bffffffffffffffffffffffffffffffffffffffffffffffffffffffff1916145b8061045b575061045a82610d41565b5b9050919050565b606060008054610471906125d2565b80601f016020809104026020016040519081016040528092919081815260200182805461049d906125d2565b80156104ea5780601f106104bf576101008083540402835291602001916104ea565b820191906000526020600020905b8154815290600101906020018083116104cd57829003601f168201915b5050505050905090565b60006104ff82610dab565b61053e576040517f08c379a000000000000000000000000000000000000000000000000000000000815260040161053590612302565b60405180910390fd5b6004600083815260200190815260200160002060009054906101000a900473ffffffffffffffffffffffffffffffffffffffff169050919050565b600061058482610729565b90508073ffffffffffffffffffffffffffffffffffffffff168373ffffffffffffffffffffffffffffffffffffffff1614156105f5576040517f08c379a00000000000000000000000000000000000000000000000000000000081526004016105ec90612362565b60405180910390fd5b8073ffffffffffffffffffffffffffffffffffffffff16610614610e17565b73ffffffffffffffffffffffffffffffffffffffff16148061064357506106428161063d610e17565b610c87565b5b610682576040517f08c379a000000000000000000000000000000000000000000000000000000000815260040161067990612282565b60405180910390fd5b61068c8383610e1f565b505050565b60086020528060005260406000206000915090505481565b6106ba6106b4610e17565b82610ed8565b6106f9576040517f08c379a00000000000000000000000000000000000000000000000000000000081526004016106f090612382565b60405180910390fd5b610704838383610fb6565b505050565b61072483838360405180602001604052806000815250610b7e565b505050565b6000806002600084815260200190815260200160002060009054906101000a900473ffffffffffffffffffffffffffffffffffffffff169050600073ffffffffffffffffffffffffffffffffffffffff168173ffffffffffffffffffffffffffffffffffffffff1614156107d2576040517f08c379a00000000000000000000000000000000000000000000000000000000081526004016107c9906122c2565b60405180910390fd5b80915050919050565b60008073ffffffffffffffffffffffffffffffffffffffff168273ffffffffffffffffffffffffffffffffffffffff16141561084c576040517f08c379a0000000000000000000000000000000000000000000000000000000008152600401610843906122a2565b60405180910390fd5b600360008373ffffffffffffffffffffffffffffffffffffffff1673ffffffffffffffffffffffffffffffffffffffff168152602001908152602001600020549050919050565b60065481565b6060600180546108a8906125d2565b80601f01602080910402602001604051908101604052809291908181526020018280546108d4906125d2565b80156109215780601f106108f657610100808354040283529160200191610921565b820191906000526020600020905b81548152906001019060200180831161090457829003601f168201915b5050505050905090565b600760009054906101000a900473ffffffffffffffffffffffffffffffffffffffff1673ffffffffffffffffffffffffffffffffffffffff163373ffffffffffffffffffffffffffffffffffffffff16146109bb576040517f08c379a00000000000000000000000000000000000000000000000000000000081526004016109b290612242565b60405180910390fd5b600660008154809291906109ce90612604565b919050555080600860006006548152602001908152602001600020819055506109f982600654611212565b5050565b610a05610e17565b73ffffffffffffffffffffffffffffffffffffffff168273ffffffffffffffffffffffffffffffffffffffff161415610a73576040517f08c379a0000000000000000000000000000000000000000000000000000000008152600401610a6a90612222565b60405180910390fd5b8060056000610a80610e17565b73ffffffffffffffffffffffffffffffffffffffff1673ffffffffffffffffffffffffffffffffffffffff16815260200190815260200160002060008473ffffffffffffffffffffffffffffffffffffffff1673ffffffffffffffffffffffffffffffffffffffff16815260200190815260200160002060006101000a81548160ff0219169083151502179055508173ffffffffffffffffffffffffffffffffffffffff16610b2d610e17565b73ffffffffffffffffffffffffffffffffffffffff167f17307eab39ab6107e8899845ad3d59bd9653f200f220920489ca2b5937696c3183604051610b729190612185565b60405180910390a35050565b610b8f610b89610e17565b83610ed8565b610bce576040517f08c379a0000000000000000000000000000000000000000000000000000000008152600401610bc590612382565b60405180910390fd5b610bda848484846113e0565b50505050565b6060610beb82610dab565b610c2a576040517f08c379a0000000000000000000000000000000000000000000000000000000008152600401610c2190612342565b60405180910390fd5b6000610c3461143c565b90506000815111610c545760405180602001604052806000815250610c7f565b80610c5e84611453565b604051602001610c6f9291906120fa565b6040516020818303038152906040525b915050919050565b6000600560008473ffffffffffffffffffffffffffffffffffffffff1673ffffffffffffffffffffffffffffffffffffffff16815260200190815260200160002060008373ffffffffffffffffffffffffffffffffffffffff1673ffffffffffffffffffffffffffffffffffffffff16815260200190815260200160002060009054906101000a900460ff16905092915050565b600760009054906101000a900473ffffffffffffffffffffffffffffffffffffffff1681565b60007f01ffc9a7000000000000000000000000000000000000000000000000000000007bffffffffffffffffffffffffffffffffffffffffffffffffffffffff1916827bffffffffffffffffffffffffffffffffffffffffffffffffffffffff1916149050919050565b60008073ffffffffffffffffffffffffffffffffffffffff166002600084815260200190815260200160002060009054906101000a900473ffffffffffffffffffffffffffffffffffffffff1673ffffffffffffffffffffffffffffffffffffffff1614159050919050565b600033905090565b816004600083815260200190815260200160002060006101000a81548173ffffffffffffffffffffffffffffffffffffffff021916908373ffffffffffffffffffffffffffffffffffffffff160217905550808273ffffffffffffffffffffffffffffffffffffffff16610e9283610729565b73ffffffffffffffffffffffffffffffffffffffff167f8c5be1e5ebec7d5bd14f71427d1e84f3dd0314c0f7b2291e5b200ac8c7c3b92560405160405180910390a45050565b6000610ee382610dab565b610f22576040517f08c379a0000000000000000000000000000000000000000000000000000000008152600401610f1990612262565b60405180910390fd5b6000610f2d83610729565b90508073ffffffffffffffffffffffffffffffffffffffff168473ffffffffffffffffffffffffffffffffffffffff161480610f9c57508373ffffffffffffffffffffffffffffffffffffffff16610f84846104f4565b73ffffffffffffffffffffffffffffffffffffffff16145b80610fad5750610fac8185610c87565b5b91505092915050565b8273ffffffffffffffffffffffffffffffffffffffff16610fd682610729565b73ffffffffffffffffffffffffffffffffffffffff161461102c576040517f08c379a000000000000000000000000000000000000000000000000000000000815260040161102390612322565b60405180910390fd5b600073ffffffffffffffffffffffffffffffffffffffff168273ffffffffffffffffffffffffffffffffffffffff16141561109c576040517f08c379a000000000000000000000000000000000000000000000000000000000815260040161109390612202565b60405180910390fd5b6110a7838383611600565b6110b2600082610e1f565b6001600360008573ffffffffffffffffffffffffffffffffffffffff1673ffffffffffffffffffffffffffffffffffffffff168152602001908152602001600020600082825461110291906124e8565b925050819055506001600360008473ffffffffffffffffffffffffffffffffffffffff1673ffffffffffffffffffffffffffffffffffffffff16815260200190815260200160002060008282546111599190612461565b92505081905550816002600083815260200190815260200160002060006101000a81548173ffffffffffffffffffffffffffffffffffffffff021916908373ffffffffffffffffffffffffffffffffffffffff160217905550808273ffffffffffffffffffffffffffffffffffffffff168473ffffffffffffffffffffffffffffffffffffffff167fddf252ad1be2c89b69c2b068fc378daa952ba7f163c4a11628f55a4df523b3ef60405160405180910390a4505050565b600073ffffffffffffffffffffffffffffffffffffffff168273ffffffffffffffffffffffffffffffffffffffff161415611282576040517f08c379a0000000000000000000000000000000000000000000000000000000008152600401611279906122e2565b60405180910390fd5b61128b81610dab565b156112cb576040517f08c379a00000000000000000000000000000000000000000000000000000000081526004016112c2906121e2565b60405180910390fd5b6112d760008383611600565b6001600360008473ffffffffffffffffffffffffffffffffffffffff1673ffffffffffffffffffffffffffffffffffffffff16815260200190815260200160002060008282546113279190612461565b92505081905550816002600083815260200190815260200160002060006101000a81548173ffffffffffffffffffffffffffffffffffffffff021916908373ffffffffffffffffffffffffffffffffffffffff160217905550808273ffffffffffffffffffffffffffffffffffffffff16600073ffffffffffffffffffffffffffffffffffffffff167fddf252ad1be2c89b69c2b068fc378daa952ba7f163c4a11628f55a4df523b3ef60405160405180910390a45050565b6113eb848484610fb6565b6113f784848484611605565b611436576040517f08c379a000000000000000000000000000000000000000000000000000000000815260040161142d906121c2565b60405180910390fd5b50505050565b606060405180602001604052806000815250905090565b6060600082141561149b576040518060400160405280600181526020017f300000000000000000000000000000000000000000000000000000000000000081525090506115fb565b600082905060005b600082146114cd5780806114b690612604565b915050600a826114c691906124b7565b91506114a3565b60008167ffffffffffffffff81111561150f577f4e487b7100000000000000000000000000000000000000000000000000000000600052604160045260246000fd5b6040519080825280601f01601f1916602001820160405280156115415781602001600182028036833780820191505090505b5090505b600085146115f45760018261155a91906124e8565b9150600a85611569919061264d565b60306115759190612461565b60f81b8183815181106115b1577f4e487b7100000000000000000000000000000000000000000000000000000000600052603260045260246000fd5b60200101907effffffffffffffffffffffffffffffffffffffffffffffffffffffffffffff1916908160001a905350600a856115ed91906124b7565b9450611545565b8093505050505b919050565b505050565b60006116268473ffffffffffffffffffffffffffffffffffffffff1661179c565b1561178f578373ffffffffffffffffffffffffffffffffffffffff1663150b7a0261164f610e17565b8786866040518563ffffffff1660e01b81526004016116719493929190612139565b602060405180830381600087803b15801561168b57600080fd5b505af19250505080156116bc57506040513d601f19601f820116820180604052508101906116b99190611a50565b60015b61173f573d80600081146116ec576040519150601f19603f3d011682016040523d82523d6000602084013e6116f1565b606091505b50600081511415611737576040517f08c379a000000000000000000000000000000000000000000000000000000000815260040161172e906121c2565b60405180910390fd5b805181602001fd5b63150b7a0260e01b7bffffffffffffffffffffffffffffffffffffffffffffffffffffffff1916817bffffffffffffffffffffffffffffffffffffffffffffffffffffffff191614915050611794565b600190505b949350505050565b600080823b905060008111915050919050565b60006117c26117bd846123ee565b6123bd565b9050828152602081018484840111156117da57600080fd5b6117e5848285612590565b509392505050565b6000813590506117fc8161274b565b92915050565b60008135905061181181612762565b92915050565b60008135905061182681612779565b92915050565b60008151905061183b81612779565b92915050565b600082601f83011261185257600080fd5b81356118628482602086016117af565b91505092915050565b60008135905061187a81612790565b92915050565b60006020828403121561189257600080fd5b60006118a0848285016117ed565b91505092915050565b600080604083850312156118bc57600080fd5b60006118ca858286016117ed565b92505060206118db858286016117ed565b9150509250929050565b6000806000606084860312156118fa57600080fd5b6000611908868287016117ed565b9350506020611919868287016117ed565b925050604061192a8682870161186b565b9150509250925092565b6000806000806080858703121561194a57600080fd5b6000611958878288016117ed565b9450506020611969878288016117ed565b935050604061197a8782880161186b565b925050606085013567ffffffffffffffff81111561199757600080fd5b6119a387828801611841565b91505092959194509250565b600080604083850312156119c257600080fd5b60006119d0858286016117ed565b92505060206119e185828601611802565b9150509250929050565b600080604083850312156119fe57600080fd5b6000611a0c858286016117ed565b9250506020611a1d8582860161186b565b9150509250929050565b600060208284031215611a3957600080fd5b6000611a4784828501611817565b91505092915050565b600060208284031215611a6257600080fd5b6000611a708482850161182c565b91505092915050565b600060208284031215611a8b57600080fd5b6000611a998482850161186b565b91505092915050565b611aab8161251c565b82525050565b611aba8161252e565b82525050565b6000611acb8261241e565b611ad58185612434565b9350611ae581856020860161259f565b611aee8161273a565b840191505092915050565b6000611b0482612429565b611b0e8185612445565b9350611b1e81856020860161259f565b611b278161273a565b840191505092915050565b6000611b3d82612429565b611b478185612456565b9350611b5781856020860161259f565b80840191505092915050565b6000611b70603283612445565b91507f4552433732313a207472616e7366657220746f206e6f6e20455243373231526560008301527f63656976657220696d706c656d656e74657200000000000000000000000000006020830152604082019050919050565b6000611bd6601c83612445565b91507f4552433732313a20746f6b656e20616c7265616479206d696e746564000000006000830152602082019050919050565b6000611c16602483612445565b91507f4552433732313a207472616e7366657220746f20746865207a65726f2061646460008301527f72657373000000000000000000000000000000000000000000000000000000006020830152604082019050919050565b6000611c7c601983612445565b91507f4552433732313a20617070726f766520746f2063616c6c6572000000000000006000830152602082019050919050565b6000611cbc602983612445565b91507f4e6f62656c43657274696669636174653a206f6e6c79436f6e74726f6c6c657260008301527f2066756e6374696f6e00000000000000000000000000000000000000000000006020830152604082019050919050565b6000611d22602c83612445565b91507f4552433732313a206f70657261746f7220717565727920666f72206e6f6e657860008301527f697374656e7420746f6b656e00000000000000000000000000000000000000006020830152604082019050919050565b6000611d88603883612445565b91507f4552433732313a20617070726f76652063616c6c6572206973206e6f74206f7760008301527f6e6572206e6f7220617070726f76656420666f7220616c6c00000000000000006020830152604082019050919050565b6000611dee602a83612445565b91507f4552433732313a2062616c616e636520717565727920666f7220746865207a6560008301527f726f2061646472657373000000000000000000000000000000000000000000006020830152604082019050919050565b6000611e54602983612445565b91507f4552433732313a206f776e657220717565727920666f72206e6f6e657869737460008301527f656e7420746f6b656e00000000000000000000000000000000000000000000006020830152604082019050919050565b6000611eba602083612445565b91507f4552433732313a206d696e7420746f20746865207a65726f20616464726573736000830152602082019050919050565b6000611efa602c83612445565b91507f4552433732313a20617070726f76656420717565727920666f72206e6f6e657860008301527f697374656e7420746f6b656e00000000000000000000000000000000000000006020830152604082019050919050565b6000611f60602983612445565b91507f4552433732313a207472616e73666572206f6620746f6b656e2074686174206960008301527f73206e6f74206f776e00000000000000000000000000000000000000000000006020830152604082019050919050565b6000611fc6602f83612445565b91507f4552433732314d657461646174613a2055524920717565727920666f72206e6f60008301527f6e6578697374656e7420746f6b656e00000000000000000000000000000000006020830152604082019050919050565b600061202c602183612445565b91507f4552433732313a20617070726f76616c20746f2063757272656e74206f776e6560008301527f72000000000000000000000000000000000000000000000000000000000000006020830152604082019050919050565b6000612092603183612445565b91507f4552433732313a207472616e736665722063616c6c6572206973206e6f74206f60008301527f776e6572206e6f7220617070726f7665640000000000000000000000000000006020830152604082019050919050565b6120f481612586565b82525050565b60006121068285611b32565b91506121128284611b32565b91508190509392505050565b60006020820190506121336000830184611aa2565b92915050565b600060808201905061214e6000830187611aa2565b61215b6020830186611aa2565b61216860408301856120eb565b818103606083015261217a8184611ac0565b905095945050505050565b600060208201905061219a6000830184611ab1565b92915050565b600060208201905081810360008301526121ba8184611af9565b905092915050565b600060208201905081810360008301526121db81611b63565b9050919050565b600060208201905081810360008301526121fb81611bc9565b9050919050565b6000602082019050818103600083015261221b81611c09565b9050919050565b6000602082019050818103600083015261223b81611c6f565b9050919050565b6000602082019050818103600083015261225b81611caf565b9050919050565b6000602082019050818103600083015261227b81611d15565b9050919050565b6000602082019050818103600083015261229b81611d7b565b9050919050565b600060208201905081810360008301526122bb81611de1565b9050919050565b600060208201905081810360008301526122db81611e47565b9050919050565b600060208201905081810360008301526122fb81611ead565b9050919050565b6000602082019050818103600083015261231b81611eed565b9050919050565b6000602082019050818103600083015261233b81611f53565b9050919050565b6000602082019050818103600083015261235b81611fb9565b9050919050565b6000602082019050818103600083015261237b8161201f565b9050919050565b6000602082019050818103600083015261239b81612085565b9050919050565b60006020820190506123b760008301846120eb565b92915050565b6000604051905081810181811067ffffffffffffffff821117156123e4576123e361270b565b5b8060405250919050565b600067ffffffffffffffff8211156124095761240861270b565b5b601f19601f8301169050602081019050919050565b600081519050919050565b600081519050919050565b600082825260208201905092915050565b600082825260208201905092915050565b600081905092915050565b600061246c82612586565b915061247783612586565b9250827fffffffffffffffffffffffffffffffffffffffffffffffffffffffffffffffff038211156124ac576124ab61267e565b5b828201905092915050565b60006124c282612586565b91506124cd83612586565b9250826124dd576124dc6126ad565b5b828204905092915050565b60006124f382612586565b91506124fe83612586565b9250828210156125115761251061267e565b5b828203905092915050565b600061252782612566565b9050919050565b60008115159050919050565b60007fffffffff0000000000000000000000000000000000000000000000000000000082169050919050565b600073ffffffffffffffffffffffffffffffffffffffff82169050919050565b6000819050919050565b82818337600083830152505050565b60005b838110156125bd5780820151818401526020810190506125a2565b838111156125cc576000848401525b50505050565b600060028204905060018216806125ea57607f821691505b602082108114156125fe576125fd6126dc565b5b50919050565b600061260f82612586565b91507fffffffffffffffffffffffffffffffffffffffffffffffffffffffffffffffff8214156126425761264161267e565b5b600182019050919050565b600061265882612586565b915061266383612586565b925082612673576126726126ad565b5b828206905092915050565b7f4e487b7100000000000000000000000000000000000000000000000000000000600052601160045260246000fd5b7f4e487b7100000000000000000000000000000000000000000000000000000000600052601260045260246000fd5b7f4e487b7100000000000000000000000000000000000000000000000000000000600052602260045260246000fd5b7f4e487b7100000000000000000000000000000000000000000000000000000000600052604160045260246000fd5b6000601f19601f8301169050919050565b6127548161251c565b811461275f57600080fd5b50565b61276b8161252e565b811461277657600080fd5b50565b6127828161253a565b811461278d57600080fd5b50565b61279981612586565b81146127a457600080fd5b5056fea2646970667358221220a9c3f9b717e8f94cb231897fd9db5182944c09b19737135e9ec3ef7a9e2713ac64736f6c63430008000033a26469706673582212203ab2a890fb17b3b35b4c6c72dd38612b3b046616ac9f81e86b7969697524d68764736f6c63430008000033",
  "immutableReferences": {},
  "source": "pragma solidity ^0.8.0;\n\nimport 'openzeppelin-solidity/contracts/token/ERC20/IERC20.sol';\nimport '../NobelCertificate.sol';\n\ncontract Campaign{\n\n    // fixed by manager - constants\n    address public manager;\n    uint256 public maximumTarget;\n    uint256 public minimumTarget;\n    uint256 public price;\n    uint40  public duration;\n    string  public name;\n    bytes   public hash;\n    address public token;\n\n    // Logic state variables\n    uint8   public isActive;\n    uint8   public isClosed;\n    uint8   public isMinimumReached;\n    uint8   public isMaximumReached;\n    uint8   public isFunded;\n    uint256 public startTime;\n    uint256 public totalCollected;\n    uint256 public totalWithdrawn;\n    NobelCertificate public nbc;\n\n    mapping( address => uint256 ) public contributors;\n    mapping( address => uint8 )   public haveClaimed;\n\n    event CampaingStarted(uint256 startTime);\n    event NewContribution(address contributor, uint256 contribution);\n    event RetrievedContribution(address contributor, uint256 contribution);\n    event CampaignFinalaised( uint256 totalContribution ,uint256 timestamp);\n    event MaximumReached( uint256 totalContribution ,uint256 timestamp);\n    event CampaignClosed( uint256 timestamp );\n    event ContributionWithdrawen( address manager, uint256 amount );\n    event TokenUpdated( address newToken );\n    event TokensClaimed( address claimedBy, uint256 claimAmount );\n    event CertificateDeployed( address certificate);\n\n    modifier onlyManager() {\n        require(manager == msg.sender, \"Campaign: onlyManager function\");\n        _;\n    }\n\n    modifier initializer() {\n        require(\n            token == address(0) || manager == address(0),\n            \"Campaign: contract already initialized\"\n        );\n        _;\n    }\n\n    function initialize(\n        string memory _name,\n        address _manager,\n        uint24 _duration,\n        uint256 _maximumTarget,\n        uint256 _minimumTarget,\n        bytes memory _hash\n    ) public initializer {\n        name = _name;\n        manager = _manager;\n        maximumTarget = _maximumTarget;\n        minimumTarget = _minimumTarget;\n        duration = _duration * (1 days);\n        hash = _hash;\n        nbc = new NobelCertificate(\"Nobel Certificate\",\"NBC\");\n        emit CertificateDeployed(address(nbc));\n    }\n\n    function setToken(address _token, uint256 _price) public initializer {\n        require( _token != address(0), \"Campaign: token cannot be null\" );\n        token = _token;\n        price = _price;\n        emit TokenUpdated( _token );\n    }\n\n    function contribute() public payable {\n        require(\n            isActive == 1,\n            \"Campaign: not yet started\"\n        );\n        if(\n            isFunded == 0 &&\n            IERC20(token).balanceOf(address(this)) >=  maximumTarget/price\n            ){\n            isFunded = 1;\n        }\n        require(\n            isFunded == 1,\n            \"Campaign: not yet funded\"\n        );\n        require( \n            totalCollected + msg.value <= maximumTarget, \n            \"Campaign: contribution exceeds maximum target\" \n            );\n        totalCollected += msg.value;\n        contributors[msg.sender] += msg.value;\n        emit NewContribution(msg.sender, msg.value);\n        if(totalCollected >= minimumTarget){\n            isMinimumReached = 1;\n            emit CampaignFinalaised(totalCollected, block.timestamp);\n        }\n        if(totalCollected == maximumTarget){\n            isMaximumReached = 1;\n            emit MaximumReached(totalCollected, block.timestamp);\n        }\n    }\n\n    function retrieveContribution() public {\n        require(\n            isMinimumReached == 0 || block.timestamp < startTime + duration,\n            \"Campaign: The campaign have been finalised\"\n        );\n        uint256 contribution = contributors[msg.sender];\n        contributors[msg.sender] = 0;\n        totalCollected -= contribution;\n        payable(msg.sender).transfer(contribution);\n        emit RetrievedContribution(msg.sender, contribution);\n    }\n\n    function claimTokens() public {\n        require(\n            isMinimumReached == 1 || block.timestamp > startTime + duration,\n            \"Campaign: The campaign have not been finalised\"\n            );\n        haveClaimed[msg.sender] = 1;\n        IERC20(token).transfer( msg.sender, contributors[msg.sender]*price );\n        nbc.generateCertificate(msg.sender, contributors[msg.sender]); \n        emit TokensClaimed(msg.sender, contributors[msg.sender]*price );\n    }\n\n    function startCampaign() public onlyManager {\n        require(isActive == 0, \"Campaign: alrerady active\");\n        require(token != address(0), \"Campaign: distribution token not set\");\n        isActive = 1;\n        startTime = block.timestamp;\n        emit CampaingStarted(block.timestamp);\n    }\n\n    function closeCampaign() public onlyManager {\n        require(\n            isMinimumReached == 0 && block.timestamp < startTime + duration,\n            \"Campaign: The campaign have been finalised\"\n        );\n        isClosed = 1;\n        emit CampaignClosed(block.timestamp);\n    }\n\n    function withdraw(uint256 _amount) public onlyManager {\n        require(\n            isMinimumReached == 1 && block.timestamp >= startTime + duration,\n            \"Campaign: The campaign have not been finalised\"\n        );\n        require(\n            totalCollected >= totalWithdrawn+_amount,\n            \"Campaign: Cannot withdraw more than collected\"\n        );\n        totalWithdrawn += _amount;\n        payable(manager).transfer(_amount);\n        emit ContributionWithdrawen(manager, _amount);\n    }\n\n}",
  "sourcePath": "/home/mihir/Desktop/blockchain-batch-2/testing-with-chai/contracts/Crowdfunding/Campaign.sol",
  "compiler": {
    "name": "solc",
    "version": "0.8.0+commit.c7dfd78e.Emscripten.clang"
  },
  "schemaVersion": "3.4.0",
  "updatedAt": "2021-06-22T06:06:52.606Z",
  "networkType": "ethereum",
  "devdoc": {
    "kind": "dev",
    "methods": {},
    "version": 1
  },
  "userdoc": {
    "kind": "user",
    "methods": {},
    "version": 1
  }
}