{
  "contractName": "DAO",
  "abi": [
    {
      "inputs": [],
      "stateMutability": "nonpayable",
      "type": "constructor"
    },
    {
      "anonymous": false,
      "inputs": [
        {
          "indexed": false,
          "internalType": "address",
          "name": "campaign",
          "type": "address"
        },
        {
          "indexed": false,
          "internalType": "uint256",
          "name": "proposalId",
          "type": "uint256"
        },
        {
          "indexed": false,
          "internalType": "address",
          "name": "manager",
          "type": "address"
        }
      ],
      "name": "CampaignDeployed",
      "type": "event"
    },
    {
      "anonymous": false,
      "inputs": [
        {
          "indexed": false,
          "internalType": "address",
          "name": "sender",
          "type": "address"
        },
        {
          "indexed": false,
          "internalType": "address",
          "name": "newMasterCopy",
          "type": "address"
        }
      ],
      "name": "MasterCopyUpdated",
      "type": "event"
    },
    {
      "anonymous": false,
      "inputs": [
        {
          "indexed": false,
          "internalType": "address",
          "name": "inviter",
          "type": "address"
        },
        {
          "indexed": false,
          "internalType": "address",
          "name": "newOwner",
          "type": "address"
        }
      ],
      "name": "NewOwnerAdded",
      "type": "event"
    },
    {
      "anonymous": false,
      "inputs": [
        {
          "indexed": false,
          "internalType": "address",
          "name": "manager",
          "type": "address"
        },
        {
          "indexed": false,
          "internalType": "uint256",
          "name": "proposalId",
          "type": "uint256"
        }
      ],
      "name": "NewProposalCreated",
      "type": "event"
    },
    {
      "anonymous": false,
      "inputs": [
        {
          "indexed": false,
          "internalType": "address",
          "name": "voter",
          "type": "address"
        },
        {
          "indexed": false,
          "internalType": "uint256",
          "name": "proposalId",
          "type": "uint256"
        },
        {
          "indexed": false,
          "internalType": "uint256",
          "name": "totalVotes",
          "type": "uint256"
        }
      ],
      "name": "VoteCasted",
      "type": "event"
    },
    {
      "inputs": [
        {
          "internalType": "address",
          "name": "",
          "type": "address"
        }
      ],
      "name": "campaignManagers",
      "outputs": [
        {
          "internalType": "uint256",
          "name": "",
          "type": "uint256"
        }
      ],
      "stateMutability": "view",
      "type": "function",
      "constant": true
    },
    {
      "inputs": [
        {
          "internalType": "uint256",
          "name": "",
          "type": "uint256"
        }
      ],
      "name": "campaignVotes",
      "outputs": [
        {
          "internalType": "uint32",
          "name": "",
          "type": "uint32"
        }
      ],
      "stateMutability": "view",
      "type": "function",
      "constant": true
    },
    {
      "inputs": [
        {
          "internalType": "address",
          "name": "",
          "type": "address"
        },
        {
          "internalType": "uint256",
          "name": "",
          "type": "uint256"
        }
      ],
      "name": "haveVotedForAProposal",
      "outputs": [
        {
          "internalType": "uint8",
          "name": "",
          "type": "uint8"
        }
      ],
      "stateMutability": "view",
      "type": "function",
      "constant": true
    },
    {
      "inputs": [
        {
          "internalType": "address",
          "name": "",
          "type": "address"
        }
      ],
      "name": "isOwner",
      "outputs": [
        {
          "internalType": "uint8",
          "name": "",
          "type": "uint8"
        }
      ],
      "stateMutability": "view",
      "type": "function",
      "constant": true
    },
    {
      "inputs": [],
      "name": "mastercopy",
      "outputs": [
        {
          "internalType": "address",
          "name": "",
          "type": "address"
        }
      ],
      "stateMutability": "view",
      "type": "function",
      "constant": true
    },
    {
      "inputs": [
        {
          "internalType": "uint256",
          "name": "",
          "type": "uint256"
        }
      ],
      "name": "proposals",
      "outputs": [
        {
          "internalType": "string",
          "name": "proposalName",
          "type": "string"
        },
        {
          "internalType": "bytes",
          "name": "hash",
          "type": "bytes"
        },
        {
          "internalType": "address",
          "name": "manager",
          "type": "address"
        },
        {
          "internalType": "uint256",
          "name": "maximumTarget",
          "type": "uint256"
        },
        {
          "internalType": "uint256",
          "name": "minimumTarget",
          "type": "uint256"
        },
        {
          "internalType": "uint24",
          "name": "duration",
          "type": "uint24"
        },
        {
          "internalType": "uint8",
          "name": "isDeployed",
          "type": "uint8"
        }
      ],
      "stateMutability": "view",
      "type": "function",
      "constant": true
    },
    {
      "inputs": [],
      "name": "totalOwners",
      "outputs": [
        {
          "internalType": "uint32",
          "name": "",
          "type": "uint32"
        }
      ],
      "stateMutability": "view",
      "type": "function",
      "constant": true
    },
    {
      "inputs": [
        {
          "internalType": "address",
          "name": "_mastercopy",
          "type": "address"
        }
      ],
      "name": "setMasterCopy",
      "outputs": [],
      "stateMutability": "nonpayable",
      "type": "function"
    },
    {
      "inputs": [
        {
          "internalType": "address",
          "name": "_newOwner",
          "type": "address"
        }
      ],
      "name": "addNewOwner",
      "outputs": [],
      "stateMutability": "nonpayable",
      "type": "function"
    },
    {
      "inputs": [
        {
          "internalType": "string",
          "name": "_proposalName",
          "type": "string"
        },
        {
          "internalType": "bytes",
          "name": "_hash",
          "type": "bytes"
        },
        {
          "internalType": "uint256",
          "name": "_maximumTarget",
          "type": "uint256"
        },
        {
          "internalType": "uint256",
          "name": "_minimumTarget",
          "type": "uint256"
        },
        {
          "internalType": "uint24",
          "name": "_duration",
          "type": "uint24"
        }
      ],
      "name": "addProposal",
      "outputs": [],
      "stateMutability": "nonpayable",
      "type": "function"
    },
    {
      "inputs": [
        {
          "internalType": "address",
          "name": "_target",
          "type": "address"
        },
        {
          "internalType": "address",
          "name": "_query",
          "type": "address"
        }
      ],
      "name": "checkIsClone",
      "outputs": [
        {
          "internalType": "bool",
          "name": "result",
          "type": "bool"
        }
      ],
      "stateMutability": "view",
      "type": "function",
      "constant": true
    },
    {
      "inputs": [
        {
          "internalType": "uint256",
          "name": "_proposalId",
          "type": "uint256"
        }
      ],
      "name": "vote",
      "outputs": [],
      "stateMutability": "nonpayable",
      "type": "function"
    },
    {
      "inputs": [],
      "name": "getProposals",
      "outputs": [
        {
          "components": [
            {
              "internalType": "string",
              "name": "proposalName",
              "type": "string"
            },
            {
              "internalType": "bytes",
              "name": "hash",
              "type": "bytes"
            },
            {
              "internalType": "address",
              "name": "manager",
              "type": "address"
            },
            {
              "internalType": "uint256",
              "name": "maximumTarget",
              "type": "uint256"
            },
            {
              "internalType": "uint256",
              "name": "minimumTarget",
              "type": "uint256"
            },
            {
              "internalType": "uint24",
              "name": "duration",
              "type": "uint24"
            },
            {
              "internalType": "uint8",
              "name": "isDeployed",
              "type": "uint8"
            }
          ],
          "internalType": "struct DAO.Proposal[]",
          "name": "",
          "type": "tuple[]"
        }
      ],
      "stateMutability": "view",
      "type": "function",
      "constant": true
    }
  ],
  "bytecode": "0x60806040523480156200001157600080fd5b5060016000803373ffffffffffffffffffffffffffffffffffffffff1673ffffffffffffffffffffffffffffffffffffffff16815260200190815260200160002060006101000a81548160ff021916908360ff1602179055506002600081819054906101000a900463ffffffff16809291906200008e9062000171565b91906101000a81548163ffffffff021916908363ffffffff160217905550507fdca9614bc31a681853195bdc7906265e772e07f813393164f626bd06a9a3efc8600033604051620000e192919062000100565b60405180910390a1620001d2565b620000fa816200012d565b82525050565b6000604082019050620001176000830185620000ef565b620001266020830184620000ef565b9392505050565b60006200013a8262000141565b9050919050565b600073ffffffffffffffffffffffffffffffffffffffff82169050919050565b600063ffffffff82169050919050565b60006200017e8262000161565b915063ffffffff821415620001985762000197620001a3565b5b600182019050919050565b7f4e487b7100000000000000000000000000000000000000000000000000000000600052601160045260246000fd5b61265c80620001e26000396000f3fe608060405234801561001057600080fd5b50600436106100cf5760003560e01c80635a6f28691161008c578063c5ed9d2711610066578063c5ed9d271461023e578063cd4152ff1461025c578063cf497e6c1461028c578063dea65b75146102a8576100cf565b80635a6f2869146101c057806362564c48146101f05780639c0d9c3b1461020e576100cf565b80630121b93f146100d4578063013cf08b146100f0578063114d8be114610126578063243669ad146101425780632f54bf6e1461016057806356893b0b14610190575b600080fd5b6100ee60048036038101906100e9919061191b565b6102c4565b005b61010a6004803603810190610105919061191b565b6109ed565b60405161011d979695949392919061201d565b60405180910390f35b610140600480360381019061013b91906117d3565b610b8b565b005b61014a610d82565b6040516101579190612204565b60405180910390f35b61017a600480360381019061017591906117d3565b610d98565b604051610187919061221f565b60405180910390f35b6101aa60048036038101906101a591906117fc565b610db8565b6040516101b79190612002565b60405180910390f35b6101da60048036038101906101d5919061191b565b610dcc565b6040516101e79190612204565b60405180910390f35b6101f8610def565b6040516102059190611fe0565b60405180910390f35b610228600480360381019061022391906117d3565b61101c565b60405161023591906121e9565b60405180910390f35b610246611034565b6040516102539190611f05565b60405180910390f35b61027660048036038101906102719190611838565b61105a565b604051610283919061221f565b60405180910390f35b6102a660048036038101906102a191906117d3565b611089565b005b6102c260048036038101906102bd9190611874565b611229565b005b60016000803373ffffffffffffffffffffffffffffffffffffffff1673ffffffffffffffffffffffffffffffffffffffff16815260200190815260200160002060009054906101000a900460ff1660ff1614610355576040517f08c379a000000000000000000000000000000000000000000000000000000000815260040161034c90612129565b60405180910390fd5b806003805490501161039c576040517f08c379a000000000000000000000000000000000000000000000000000000000815260040161039390612169565b60405180910390fd5b6000600382815481106103d8577f4e487b7100000000000000000000000000000000000000000000000000000000600052603260045260246000fd5b906000526020600020906006020160050160039054906101000a900460ff1660ff161461043a576040517f08c379a000000000000000000000000000000000000000000000000000000000815260040161043190612109565b60405180910390fd5b6000600160003373ffffffffffffffffffffffffffffffffffffffff1673ffffffffffffffffffffffffffffffffffffffff168152602001908152602001600020600083815260200190815260200160002060009054906101000a900460ff1660ff16146104dd576040517f08c379a00000000000000000000000000000000000000000000000000000000081526004016104d490612149565b60405180910390fd5b60018060003373ffffffffffffffffffffffffffffffffffffffff1673ffffffffffffffffffffffffffffffffffffffff168152602001908152602001600020600083815260200190815260200160002060006101000a81548160ff021916908360ff16021790555060056000828152602001908152602001600020600081819054906101000a900463ffffffff1680929190610579906124e7565b91906101000a81548163ffffffff021916908363ffffffff160217905550507fcb87df07b1c304492bd875a5c8b98672eca500939412809ea229afef1d74518833826005600085815260200190815260200160002060009054906101000a900463ffffffff166040516105ee93929190611fa9565b60405180910390a160028060009054906101000a900463ffffffff166106149190612388565b63ffffffff166005600083815260200190815260200160002060009054906101000a900463ffffffff1663ffffffff1611156109ea57600160038281548110610686577f4e487b7100000000000000000000000000000000000000000000000000000000600052603260045260246000fd5b906000526020600020906006020160050160036101000a81548160ff021916908360ff16021790555060006106dc600260049054906101000a900473ffffffffffffffffffffffffffffffffffffffff166114af565b90508073ffffffffffffffffffffffffffffffffffffffff16639f4ad27660038481548110610734577f4e487b7100000000000000000000000000000000000000000000000000000000600052603260045260246000fd5b90600052602060002090600602016000016003858154811061077f577f4e487b7100000000000000000000000000000000000000000000000000000000600052603260045260246000fd5b906000526020600020906006020160020160009054906101000a900473ffffffffffffffffffffffffffffffffffffffff16600386815481106107eb577f4e487b7100000000000000000000000000000000000000000000000000000000600052603260045260246000fd5b906000526020600020906006020160050160009054906101000a900462ffffff1660038781548110610846577f4e487b7100000000000000000000000000000000000000000000000000000000600052603260045260246000fd5b90600052602060002090600602016003015460038881548110610892577f4e487b7100000000000000000000000000000000000000000000000000000000600052603260045260246000fd5b906000526020600020906006020160040154600389815481106108de577f4e487b7100000000000000000000000000000000000000000000000000000000600052603260045260246000fd5b90600052602060002090600602016001016040518763ffffffff1660e01b81526004016109109695949392919061209a565b600060405180830381600087803b15801561092a57600080fd5b505af115801561093e573d6000803e3d6000fd5b505050507f86ddae09ebc23bf8b9e0f48cd5edb92e07bf3cf230956b8132bac91b77b09deb81836003858154811061099f577f4e487b7100000000000000000000000000000000000000000000000000000000600052603260045260246000fd5b906000526020600020906006020160020160009054906101000a900473ffffffffffffffffffffffffffffffffffffffff166040516109e093929190611f72565b60405180910390a1505b50565b600381815481106109fd57600080fd5b9060005260206000209060060201600091509050806000018054610a20906124b5565b80601f0160208091040260200160405190810160405280929190818152602001828054610a4c906124b5565b8015610a995780601f10610a6e57610100808354040283529160200191610a99565b820191906000526020600020905b815481529060010190602001808311610a7c57829003601f168201915b505050505090806001018054610aae906124b5565b80601f0160208091040260200160405190810160405280929190818152602001828054610ada906124b5565b8015610b275780601f10610afc57610100808354040283529160200191610b27565b820191906000526020600020905b815481529060010190602001808311610b0a57829003601f168201915b5050505050908060020160009054906101000a900473ffffffffffffffffffffffffffffffffffffffff16908060030154908060040154908060050160009054906101000a900462ffffff16908060050160039054906101000a900460ff16905087565b60016000803373ffffffffffffffffffffffffffffffffffffffff1673ffffffffffffffffffffffffffffffffffffffff16815260200190815260200160002060009054906101000a900460ff1660ff1614610c1c576040517f08c379a0000000000000000000000000000000000000000000000000000000008152600401610c1390612129565b60405180910390fd5b60008060008373ffffffffffffffffffffffffffffffffffffffff1673ffffffffffffffffffffffffffffffffffffffff16815260200190815260200160002060009054906101000a900460ff1660ff1614610cad576040517f08c379a0000000000000000000000000000000000000000000000000000000008152600401610ca490612189565b60405180910390fd5b60016000808373ffffffffffffffffffffffffffffffffffffffff1673ffffffffffffffffffffffffffffffffffffffff16815260200190815260200160002060006101000a81548160ff021916908360ff1602179055506002600081819054906101000a900463ffffffff1680929190610d27906124e7565b91906101000a81548163ffffffff021916908363ffffffff160217905550507fdca9614bc31a681853195bdc7906265e772e07f813393164f626bd06a9a3efc83382604051610d77929190611f20565b60405180910390a150565b600260009054906101000a900463ffffffff1681565b60006020528060005260406000206000915054906101000a900460ff1681565b6000610dc48383611519565b905092915050565b60056020528060005260406000206000915054906101000a900463ffffffff1681565b60606003805480602002602001604051908101604052809291908181526020016000905b8282101561101357838290600052602060002090600602016040518060e0016040529081600082018054610e46906124b5565b80601f0160208091040260200160405190810160405280929190818152602001828054610e72906124b5565b8015610ebf5780601f10610e9457610100808354040283529160200191610ebf565b820191906000526020600020905b815481529060010190602001808311610ea257829003601f168201915b50505050508152602001600182018054610ed8906124b5565b80601f0160208091040260200160405190810160405280929190818152602001828054610f04906124b5565b8015610f515780601f10610f2657610100808354040283529160200191610f51565b820191906000526020600020905b815481529060010190602001808311610f3457829003601f168201915b505050505081526020016002820160009054906101000a900473ffffffffffffffffffffffffffffffffffffffff1673ffffffffffffffffffffffffffffffffffffffff1673ffffffffffffffffffffffffffffffffffffffff16815260200160038201548152602001600482015481526020016005820160009054906101000a900462ffffff1662ffffff1662ffffff1681526020016005820160039054906101000a900460ff1660ff1660ff168152505081526020019060010190610e13565b50505050905090565b60046020528060005260406000206000915090505481565b600260049054906101000a900473ffffffffffffffffffffffffffffffffffffffff1681565b60016020528160005260406000206020528060005260406000206000915091509054906101000a900460ff1681565b60016000803373ffffffffffffffffffffffffffffffffffffffff1673ffffffffffffffffffffffffffffffffffffffff16815260200190815260200160002060009054906101000a900460ff1660ff161461111a576040517f08c379a000000000000000000000000000000000000000000000000000000000815260040161111190612129565b60405180910390fd5b600073ffffffffffffffffffffffffffffffffffffffff168173ffffffffffffffffffffffffffffffffffffffff16141561118a576040517f08c379a0000000000000000000000000000000000000000000000000000000008152600401611181906121c9565b60405180910390fd5b80600260046101000a81548173ffffffffffffffffffffffffffffffffffffffff021916908373ffffffffffffffffffffffffffffffffffffffff1602179055507f30d7592adcdd64a52ae3f984b5a2f760a501617174498ae4e30eca5da8f4c84633600260049054906101000a900473ffffffffffffffffffffffffffffffffffffffff1660405161121e929190611f20565b60405180910390a150565b600073ffffffffffffffffffffffffffffffffffffffff16600260049054906101000a900473ffffffffffffffffffffffffffffffffffffffff1673ffffffffffffffffffffffffffffffffffffffff1614156112bb576040517f08c379a00000000000000000000000000000000000000000000000000000000081526004016112b2906121a9565b60405180910390fd5b600380549050600460003373ffffffffffffffffffffffffffffffffffffffff1673ffffffffffffffffffffffffffffffffffffffff1681526020019081526020016000208190555060036040518060e001604052808781526020018681526020013373ffffffffffffffffffffffffffffffffffffffff1681526020018581526020018481526020018362ffffff168152602001600060ff168152509080600181540180825580915050600190039060005260206000209060060201600090919091909150600082015181600001908051906020019061139d92919061159b565b5060208201518160010190805190602001906113ba929190611621565b5060408201518160020160006101000a81548173ffffffffffffffffffffffffffffffffffffffff021916908373ffffffffffffffffffffffffffffffffffffffff160217905550606082015181600301556080820151816004015560a08201518160050160006101000a81548162ffffff021916908362ffffff16021790555060c08201518160050160036101000a81548160ff021916908360ff16021790555050507f1d9d10f5e6fc94854c9abfa15b5313c0861160cd3569468c9da69bf94417c41633600160038054905061149291906123b9565b6040516114a0929190611f49565b60405180910390a15050505050565b6000808260601b90506040517f3d602d80600a3d3981f3363d3d373d3d3d363d7300000000000000000000000081528160148201527f5af43d82803e903d91602b57fd5bf3000000000000000000000000000000000060288201526037816000f092505050919050565b6000808360601b90506040517f363d3d373d3d3d363d7300000000000000000000000000000000000000000000815281600a8201527f5af43d82803e903d91602b57fd5bf30000000000000000000000000000000000601e82015260408101602d600082873c600d810151600d83015114815183511416935050505092915050565b8280546115a7906124b5565b90600052602060002090601f0160209004810192826115c95760008555611610565b82601f106115e257805160ff1916838001178555611610565b82800160010185558215611610579182015b8281111561160f5782518255916020019190600101906115f4565b5b50905061161d91906116a7565b5090565b82805461162d906124b5565b90600052602060002090601f01602090048101928261164f5760008555611696565b82601f1061166857805160ff1916838001178555611696565b82800160010185558215611696579182015b8281111561169557825182559160200191906001019061167a565b5b5090506116a391906116a7565b5090565b5b808211156116c05760008160009055506001016116a8565b5090565b60006116d76116d28461226b565b61223a565b9050828152602081018484840111156116ef57600080fd5b6116fa848285612473565b509392505050565b60006117156117108461229b565b61223a565b90508281526020810184848401111561172d57600080fd5b611738848285612473565b509392505050565b60008135905061174f816125e1565b92915050565b600082601f83011261176657600080fd5b81356117768482602086016116c4565b91505092915050565b600082601f83011261179057600080fd5b81356117a0848260208601611702565b91505092915050565b6000813590506117b8816125f8565b92915050565b6000813590506117cd8161260f565b92915050565b6000602082840312156117e557600080fd5b60006117f384828501611740565b91505092915050565b6000806040838503121561180f57600080fd5b600061181d85828601611740565b925050602061182e85828601611740565b9150509250929050565b6000806040838503121561184b57600080fd5b600061185985828601611740565b925050602061186a858286016117be565b9150509250929050565b600080600080600060a0868803121561188c57600080fd5b600086013567ffffffffffffffff8111156118a657600080fd5b6118b28882890161177f565b955050602086013567ffffffffffffffff8111156118cf57600080fd5b6118db88828901611755565b94505060406118ec888289016117be565b93505060606118fd888289016117be565b925050608061190e888289016117a9565b9150509295509295909350565b60006020828403121561192d57600080fd5b600061193b848285016117be565b91505092915050565b60006119508383611dea565b905092915050565b611961816123ed565b82525050565b611970816123ed565b82525050565b600061198182612305565b61198b8185612333565b93508360208202850161199d856122cb565b8060005b858110156119d957848403895281516119ba8582611944565b94506119c583612326565b925060208a019950506001810190506119a1565b50829750879550505050505092915050565b6119f4816123ff565b82525050565b6000611a0582612310565b611a0f8185612344565b9350611a1f818560208601612482565b611a28816125d0565b840191505092915050565b6000611a3e82612310565b611a488185612355565b9350611a58818560208601612482565b611a61816125d0565b840191505092915050565b60008154611a79816124b5565b611a838186612355565b94506001821660008114611a9e5760018114611ab057611ae3565b60ff1983168652602086019350611ae3565b611ab9856122db565b60005b83811015611adb57815481890152600182019150602081019050611abc565b808801955050505b50505092915050565b6000611af78261231b565b611b018185612366565b9350611b11818560208601612482565b611b1a816125d0565b840191505092915050565b6000611b308261231b565b611b3a8185612377565b9350611b4a818560208601612482565b611b53816125d0565b840191505092915050565b60008154611b6b816124b5565b611b758186612377565b94506001821660008114611b905760018114611ba257611bd5565b60ff1983168652602086019350611bd5565b611bab856122f0565b60005b83811015611bcd57815481890152600182019150602081019050611bae565b808801955050505b50505092915050565b6000611beb601e83612377565b91507f44414f3a2050726f706f73616c20616c726561647920657865637574656400006000830152602082019050919050565b6000611c2b601783612377565b91507f44414f3a206f6e6c794f6e7765722066756e6374696f6e0000000000000000006000830152602082019050919050565b6000611c6b602a83612377565b91507f44414f3a20616c72656164792063617374656420766f746520666f722074686960008301527f732070726f706f73616c000000000000000000000000000000000000000000006020830152604082019050919050565b6000611cd1601d83612377565b91507f44414f3a2070726f706f73616c20646f6573206e6f74206578697374730000006000830152602082019050919050565b6000611d11601583612377565b91507f44414f3a20616c726561647920616e206f776e657200000000000000000000006000830152602082019050919050565b6000611d51601f83612377565b91507f44414f3a206d6173746572636f7079206e6f7420696e697469616c697a6564006000830152602082019050919050565b6000611d91602683612377565b91507f44414f3a204d6173746572636f70792063616e6e6f74206265207a65726f206160008301527f64647265737300000000000000000000000000000000000000000000000000006020830152604082019050919050565b600060e0830160008301518482036000860152611e078282611aec565b91505060208301518482036020860152611e2182826119fa565b9150506040830151611e366040860182611958565b506060830151611e496060860182611eab565b506080830151611e5c6080860182611eab565b5060a0830151611e6f60a0860182611e8d565b5060c0830151611e8260c0860182611ee7565b508091505092915050565b611e968161242b565b82525050565b611ea58161242b565b82525050565b611eb48161243a565b82525050565b611ec38161243a565b82525050565b611ed281612461565b82525050565b611ee181612444565b82525050565b611ef081612454565b82525050565b611eff81612454565b82525050565b6000602082019050611f1a6000830184611967565b92915050565b6000604082019050611f356000830185611967565b611f426020830184611967565b9392505050565b6000604082019050611f5e6000830185611967565b611f6b6020830184611eba565b9392505050565b6000606082019050611f876000830186611967565b611f946020830185611eba565b611fa16040830184611967565b949350505050565b6000606082019050611fbe6000830186611967565b611fcb6020830185611eba565b611fd86040830184611ec9565b949350505050565b60006020820190508181036000830152611ffa8184611976565b905092915050565b600060208201905061201760008301846119eb565b92915050565b600060e0820190508181036000830152612037818a611b25565b9050818103602083015261204b8189611a33565b905061205a6040830188611967565b6120676060830187611eba565b6120746080830186611eba565b61208160a0830185611e9c565b61208e60c0830184611ef6565b98975050505050505050565b600060c08201905081810360008301526120b48189611b5e565b90506120c36020830188611967565b6120d06040830187611e9c565b6120dd6060830186611eba565b6120ea6080830185611eba565b81810360a08301526120fc8184611a6c565b9050979650505050505050565b6000602082019050818103600083015261212281611bde565b9050919050565b6000602082019050818103600083015261214281611c1e565b9050919050565b6000602082019050818103600083015261216281611c5e565b9050919050565b6000602082019050818103600083015261218281611cc4565b9050919050565b600060208201905081810360008301526121a281611d04565b9050919050565b600060208201905081810360008301526121c281611d44565b9050919050565b600060208201905081810360008301526121e281611d84565b9050919050565b60006020820190506121fe6000830184611eba565b92915050565b60006020820190506122196000830184611ed8565b92915050565b60006020820190506122346000830184611ef6565b92915050565b6000604051905081810181811067ffffffffffffffff82111715612261576122606125a1565b5b8060405250919050565b600067ffffffffffffffff821115612286576122856125a1565b5b601f19601f8301169050602081019050919050565b600067ffffffffffffffff8211156122b6576122b56125a1565b5b601f19601f8301169050602081019050919050565b6000819050602082019050919050565b60008190508160005260206000209050919050565b60008190508160005260206000209050919050565b600081519050919050565b600081519050919050565b600081519050919050565b6000602082019050919050565b600082825260208201905092915050565b600082825260208201905092915050565b600082825260208201905092915050565b600082825260208201905092915050565b600082825260208201905092915050565b600061239382612444565b915061239e83612444565b9250826123ae576123ad612543565b5b828204905092915050565b60006123c48261243a565b91506123cf8361243a565b9250828210156123e2576123e1612514565b5b828203905092915050565b60006123f88261240b565b9050919050565b60008115159050919050565b600073ffffffffffffffffffffffffffffffffffffffff82169050919050565b600062ffffff82169050919050565b6000819050919050565b600063ffffffff82169050919050565b600060ff82169050919050565b600061246c82612444565b9050919050565b82818337600083830152505050565b60005b838110156124a0578082015181840152602081019050612485565b838111156124af576000848401525b50505050565b600060028204905060018216806124cd57607f821691505b602082108114156124e1576124e0612572565b5b50919050565b60006124f282612444565b915063ffffffff82141561250957612508612514565b5b600182019050919050565b7f4e487b7100000000000000000000000000000000000000000000000000000000600052601160045260246000fd5b7f4e487b7100000000000000000000000000000000000000000000000000000000600052601260045260246000fd5b7f4e487b7100000000000000000000000000000000000000000000000000000000600052602260045260246000fd5b7f4e487b7100000000000000000000000000000000000000000000000000000000600052604160045260246000fd5b6000601f19601f8301169050919050565b6125ea816123ed565b81146125f557600080fd5b50565b6126018161242b565b811461260c57600080fd5b50565b6126188161243a565b811461262357600080fd5b5056fea264697066735822122085ba44ecb7f7c7a2b2fbd7b35a5cbf7b682add0f376ae90c4f2dffbbf4ad210464736f6c63430008000033",
  "immutableReferences": {},
  "source": "pragma solidity ^0.8.0;\n\nimport '../utils/CloneFactory.sol';\nimport '../interface/ICampaign.sol';\n\ncontract DAO is CloneFactory {\n\n    mapping(address => uint8) public isOwner;\n    mapping(address => mapping(uint256 => uint8)) public haveVotedForAProposal;\n    uint32 public totalOwners;\n    address public mastercopy;\n\n    struct Proposal{\n        string proposalName;\n        bytes hash;\n        address manager;\n        uint256 maximumTarget;\n        uint256 minimumTarget;\n        uint24 duration;\n        uint8 isDeployed;\n    }\n    Proposal[] public proposals;\n    mapping(address => uint256) public campaignManagers;\n    mapping(uint256 => uint32) public campaignVotes;\n\n    event NewOwnerAdded(address inviter, address newOwner);\n    event NewProposalCreated(address manager, uint256 proposalId);\n    event VoteCasted(address voter, uint256 proposalId, uint256 totalVotes);\n    event CampaignDeployed(address campaign, uint256 proposalId, address manager);\n    event MasterCopyUpdated(address sender, address newMasterCopy);\n\n    constructor () {\n        isOwner[msg.sender] = 1;\n        totalOwners++;\n        emit NewOwnerAdded(address(0), msg.sender);\n    }\n\n    modifier onlyOwner() {\n        require( isOwner[msg.sender] == 1 , \"DAO: onlyOnwer function\");\n        _;\n    }\n\n    modifier isInitialized() {\n        require(mastercopy != address(0), \"DAO: mastercopy not initialized\");\n        _;\n    }\n\n    function setMasterCopy(address _mastercopy) public onlyOwner {\n        require(_mastercopy != address(0), \"DAO: Mastercopy cannot be zero address\");\n        mastercopy = _mastercopy;\n        emit MasterCopyUpdated(msg.sender, mastercopy);\n    }\n\n    function addNewOwner(address _newOwner) public onlyOwner {\n        require(isOwner[_newOwner] == 0, \"DAO: already an owner\");\n        isOwner[_newOwner] = 1;\n        totalOwners++;\n        emit NewOwnerAdded(msg.sender, _newOwner);\n    }\n\n    function addProposal(\n        string memory _proposalName, \n        bytes memory _hash,\n        uint256 _maximumTarget,\n        uint256 _minimumTarget,\n        uint24 _duration\n        ) public isInitialized {\n        campaignManagers[msg.sender] = proposals.length;\n        proposals.push(Proposal(\n            _proposalName, \n            _hash, \n            msg.sender, \n            _maximumTarget, \n            _minimumTarget, \n            _duration, \n            0));\n        emit NewProposalCreated(msg.sender, (proposals.length-1));\n    }\n\n    function checkIsClone(address _target, address _query) public view returns(bool result){\n        return isClone(_target, _query);\n    }\n\n    function vote(uint256 _proposalId) public onlyOwner{\n        require(\n            (proposals.length) > _proposalId,\n            \"DAO: proposal does not exists\"\n        );\n        require(\n            proposals[_proposalId].isDeployed == 0, \n            \"DAO: Proposal already executed\"\n            );\n        require( \n            haveVotedForAProposal[msg.sender][_proposalId] == 0, \n            \"DAO: already casted vote for this proposal\"\n            );\n        haveVotedForAProposal[msg.sender][_proposalId] = 1;\n        campaignVotes[_proposalId]++;\n        emit VoteCasted(msg.sender, _proposalId, campaignVotes[_proposalId]);\n        if( campaignVotes[_proposalId] > (totalOwners/2) ){\n            proposals[_proposalId].isDeployed = 1;\n            address campaign = createClone(mastercopy);\n            ICampaign(campaign).initialize(\n                proposals[_proposalId].proposalName,\n                proposals[_proposalId].manager,\n                proposals[_proposalId].duration,\n                proposals[_proposalId].maximumTarget,\n                proposals[_proposalId].minimumTarget,\n                proposals[_proposalId].hash\n            );\n            emit CampaignDeployed(campaign, _proposalId, proposals[_proposalId].manager);\n        }\n    }\n\n    function getProposals() public view returns(Proposal[] memory){\n        return proposals;\n    }\n\n}",
  "sourcePath": "/home/mihir/Desktop/blockchain-batch-2/testing-with-chai/contracts/Crowdfunding/DAO.sol",
  "compiler": {
    "name": "solc",
    "version": "0.8.0+commit.c7dfd78e.Emscripten.clang"
  },
  "schemaVersion": "3.4.0",
  "updatedAt": "2021-06-22T06:06:52.373Z",
  "networkType": "ethereum",
  "devdoc": {
    "kind": "dev",
    "methods": {},
    "version": 1
  },
  "userdoc": {
    "kind": "user",
    "methods": {},
    "version": 1
  }
}