{
  "contractName": "NobelCertificate",
  "abi": [
    {
      "inputs": [
        {
          "internalType": "string",
          "name": "_name",
          "type": "string"
        },
        {
          "internalType": "string",
          "name": "_symbol",
          "type": "string"
        }
      ],
      "stateMutability": "nonpayable",
      "type": "constructor"
    },
    {
      "anonymous": false,
      "inputs": [
        {
          "indexed": true,
          "internalType": "address",
          "name": "owner",
          "type": "address"
        },
        {
          "indexed": true,
          "internalType": "address",
          "name": "approved",
          "type": "address"
        },
        {
          "indexed": true,
          "internalType": "uint256",
          "name": "tokenId",
          "type": "uint256"
        }
      ],
      "name": "Approval",
      "type": "event"
    },
    {
      "anonymous": false,
      "inputs": [
        {
          "indexed": true,
          "internalType": "address",
          "name": "owner",
          "type": "address"
        },
        {
          "indexed": true,
          "internalType": "address",
          "name": "operator",
          "type": "address"
        },
        {
          "indexed": false,
          "internalType": "bool",
          "name": "approved",
          "type": "bool"
        }
      ],
      "name": "ApprovalForAll",
      "type": "event"
    },
    {
      "anonymous": false,
      "inputs": [
        {
          "indexed": true,
          "internalType": "address",
          "name": "from",
          "type": "address"
        },
        {
          "indexed": true,
          "internalType": "address",
          "name": "to",
          "type": "address"
        },
        {
          "indexed": true,
          "internalType": "uint256",
          "name": "tokenId",
          "type": "uint256"
        }
      ],
      "name": "Transfer",
      "type": "event"
    },
    {
      "inputs": [
        {
          "internalType": "address",
          "name": "to",
          "type": "address"
        },
        {
          "internalType": "uint256",
          "name": "tokenId",
          "type": "uint256"
        }
      ],
      "name": "approve",
      "outputs": [],
      "stateMutability": "nonpayable",
      "type": "function"
    },
    {
      "inputs": [
        {
          "internalType": "address",
          "name": "owner",
          "type": "address"
        }
      ],
      "name": "balanceOf",
      "outputs": [
        {
          "internalType": "uint256",
          "name": "",
          "type": "uint256"
        }
      ],
      "stateMutability": "view",
      "type": "function"
    },
    {
      "inputs": [
        {
          "internalType": "uint256",
          "name": "",
          "type": "uint256"
        }
      ],
      "name": "contributions",
      "outputs": [
        {
          "internalType": "uint256",
          "name": "",
          "type": "uint256"
        }
      ],
      "stateMutability": "view",
      "type": "function"
    },
    {
      "inputs": [],
      "name": "controller",
      "outputs": [
        {
          "internalType": "address",
          "name": "",
          "type": "address"
        }
      ],
      "stateMutability": "view",
      "type": "function"
    },
    {
      "inputs": [
        {
          "internalType": "uint256",
          "name": "tokenId",
          "type": "uint256"
        }
      ],
      "name": "getApproved",
      "outputs": [
        {
          "internalType": "address",
          "name": "",
          "type": "address"
        }
      ],
      "stateMutability": "view",
      "type": "function"
    },
    {
      "inputs": [
        {
          "internalType": "address",
          "name": "owner",
          "type": "address"
        },
        {
          "internalType": "address",
          "name": "operator",
          "type": "address"
        }
      ],
      "name": "isApprovedForAll",
      "outputs": [
        {
          "internalType": "bool",
          "name": "",
          "type": "bool"
        }
      ],
      "stateMutability": "view",
      "type": "function"
    },
    {
      "inputs": [],
      "name": "name",
      "outputs": [
        {
          "internalType": "string",
          "name": "",
          "type": "string"
        }
      ],
      "stateMutability": "view",
      "type": "function"
    },
    {
      "inputs": [
        {
          "internalType": "uint256",
          "name": "tokenId",
          "type": "uint256"
        }
      ],
      "name": "ownerOf",
      "outputs": [
        {
          "internalType": "address",
          "name": "",
          "type": "address"
        }
      ],
      "stateMutability": "view",
      "type": "function"
    },
    {
      "inputs": [
        {
          "internalType": "address",
          "name": "from",
          "type": "address"
        },
        {
          "internalType": "address",
          "name": "to",
          "type": "address"
        },
        {
          "internalType": "uint256",
          "name": "tokenId",
          "type": "uint256"
        }
      ],
      "name": "safeTransferFrom",
      "outputs": [],
      "stateMutability": "nonpayable",
      "type": "function"
    },
    {
      "inputs": [
        {
          "internalType": "address",
          "name": "from",
          "type": "address"
        },
        {
          "internalType": "address",
          "name": "to",
          "type": "address"
        },
        {
          "internalType": "uint256",
          "name": "tokenId",
          "type": "uint256"
        },
        {
          "internalType": "bytes",
          "name": "_data",
          "type": "bytes"
        }
      ],
      "name": "safeTransferFrom",
      "outputs": [],
      "stateMutability": "nonpayable",
      "type": "function"
    },
    {
      "inputs": [
        {
          "internalType": "address",
          "name": "operator",
          "type": "address"
        },
        {
          "internalType": "bool",
          "name": "approved",
          "type": "bool"
        }
      ],
      "name": "setApprovalForAll",
      "outputs": [],
      "stateMutability": "nonpayable",
      "type": "function"
    },
    {
      "inputs": [
        {
          "internalType": "bytes4",
          "name": "interfaceId",
          "type": "bytes4"
        }
      ],
      "name": "supportsInterface",
      "outputs": [
        {
          "internalType": "bool",
          "name": "",
          "type": "bool"
        }
      ],
      "stateMutability": "view",
      "type": "function"
    },
    {
      "inputs": [],
      "name": "symbol",
      "outputs": [
        {
          "internalType": "string",
          "name": "",
          "type": "string"
        }
      ],
      "stateMutability": "view",
      "type": "function"
    },
    {
      "inputs": [],
      "name": "tokenIds",
      "outputs": [
        {
          "internalType": "uint256",
          "name": "",
          "type": "uint256"
        }
      ],
      "stateMutability": "view",
      "type": "function"
    },
    {
      "inputs": [
        {
          "internalType": "uint256",
          "name": "tokenId",
          "type": "uint256"
        }
      ],
      "name": "tokenURI",
      "outputs": [
        {
          "internalType": "string",
          "name": "",
          "type": "string"
        }
      ],
      "stateMutability": "view",
      "type": "function"
    },
    {
      "inputs": [
        {
          "internalType": "address",
          "name": "from",
          "type": "address"
        },
        {
          "internalType": "address",
          "name": "to",
          "type": "address"
        },
        {
          "internalType": "uint256",
          "name": "tokenId",
          "type": "uint256"
        }
      ],
      "name": "transferFrom",
      "outputs": [],
      "stateMutability": "nonpayable",
      "type": "function"
    },
    {
      "inputs": [
        {
          "internalType": "address",
          "name": "_to",
          "type": "address"
        },
        {
          "internalType": "uint256",
          "name": "_contributions",
          "type": "uint256"
        }
      ],
      "name": "generateCertificate",
      "outputs": [],
      "stateMutability": "nonpayable",
      "type": "function"
    }
  ],
  "bytecode": "0x60806040523480156200001157600080fd5b5060405162002b6938038062002b698339818101604052810190620000379190620001d8565b8181816000908051906020019062000051929190620000b6565b5080600190805190602001906200006a929190620000b6565b50505033600760006101000a81548173ffffffffffffffffffffffffffffffffffffffff021916908373ffffffffffffffffffffffffffffffffffffffff16021790555050506200037c565b828054620000c490620002e8565b90600052602060002090601f016020900481019282620000e8576000855562000134565b82601f106200010357805160ff191683800117855562000134565b8280016001018555821562000134579182015b828111156200013357825182559160200191906001019062000116565b5b50905062000143919062000147565b5090565b5b808211156200016257600081600090555060010162000148565b5090565b60006200017d62000177846200027f565b6200024b565b9050828152602081018484840111156200019657600080fd5b620001a3848285620002b2565b509392505050565b600082601f830112620001bd57600080fd5b8151620001cf84826020860162000166565b91505092915050565b60008060408385031215620001ec57600080fd5b600083015167ffffffffffffffff8111156200020757600080fd5b6200021585828601620001ab565b925050602083015167ffffffffffffffff8111156200023357600080fd5b6200024185828601620001ab565b9150509250929050565b6000604051905081810181811067ffffffffffffffff821117156200027557620002746200034d565b5b8060405250919050565b600067ffffffffffffffff8211156200029d576200029c6200034d565b5b601f19601f8301169050602081019050919050565b60005b83811015620002d2578082015181840152602081019050620002b5565b83811115620002e2576000848401525b50505050565b600060028204905060018216806200030157607f821691505b602082108114156200031857620003176200031e565b5b50919050565b7f4e487b7100000000000000000000000000000000000000000000000000000000600052602260045260246000fd5b7f4e487b7100000000000000000000000000000000000000000000000000000000600052604160045260246000fd5b6127dd806200038c6000396000f3fe608060405234801561001057600080fd5b506004361061010b5760003560e01c806370a08231116100a2578063a22cb46511610071578063a22cb465146102ca578063b88d4fde146102e6578063c87b56dd14610302578063e985e9c514610332578063f77c4791146103625761010b565b806370a0823114610242578063714cff561461027257806395d89b41146102905780639e7035cb146102ae5761010b565b80631cee0700116100de5780631cee0700146101aa57806323b872dd146101da57806342842e0e146101f65780636352211e146102125761010b565b806301ffc9a71461011057806306fdde0314610140578063081812fc1461015e578063095ea7b31461018e575b600080fd5b61012a60048036038101906101259190611a27565b610380565b6040516101379190612185565b60405180910390f35b610148610462565b60405161015591906121a0565b60405180910390f35b61017860048036038101906101739190611a79565b6104f4565b604051610185919061211e565b60405180910390f35b6101a860048036038101906101a391906119eb565b610579565b005b6101c460048036038101906101bf9190611a79565b610691565b6040516101d191906123a2565b60405180910390f35b6101f460048036038101906101ef91906118e5565b6106a9565b005b610210600480360381019061020b91906118e5565b610709565b005b61022c60048036038101906102279190611a79565b610729565b604051610239919061211e565b60405180910390f35b61025c60048036038101906102579190611880565b6107db565b60405161026991906123a2565b60405180910390f35b61027a610893565b60405161028791906123a2565b60405180910390f35b610298610899565b6040516102a591906121a0565b60405180910390f35b6102c860048036038101906102c391906119eb565b61092b565b005b6102e460048036038101906102df91906119af565b6109fd565b005b61030060048036038101906102fb9190611934565b610b7e565b005b61031c60048036038101906103179190611a79565b610be0565b60405161032991906121a0565b60405180910390f35b61034c600480360381019061034791906118a9565b610c87565b6040516103599190612185565b60405180910390f35b61036a610d1b565b604051610377919061211e565b60405180910390f35b60007f80ac58cd000000000000000000000000000000000000000000000000000000007bffffffffffffffffffffffffffffffffffffffffffffffffffffffff1916827bffffffffffffffffffffffffffffffffffffffffffffffffffffffff1916148061044b57507f5b5e139f000000000000000000000000000000000000000000000000000000007bffffffffffffffffffffffffffffffffffffffffffffffffffffffff1916827bffffffffffffffffffffffffffffffffffffffffffffffffffffffff1916145b8061045b575061045a82610d41565b5b9050919050565b606060008054610471906125d2565b80601f016020809104026020016040519081016040528092919081815260200182805461049d906125d2565b80156104ea5780601f106104bf576101008083540402835291602001916104ea565b820191906000526020600020905b8154815290600101906020018083116104cd57829003601f168201915b5050505050905090565b60006104ff82610dab565b61053e576040517f08c379a000000000000000000000000000000000000000000000000000000000815260040161053590612302565b60405180910390fd5b6004600083815260200190815260200160002060009054906101000a900473ffffffffffffffffffffffffffffffffffffffff169050919050565b600061058482610729565b90508073ffffffffffffffffffffffffffffffffffffffff168373ffffffffffffffffffffffffffffffffffffffff1614156105f5576040517f08c379a00000000000000000000000000000000000000000000000000000000081526004016105ec90612362565b60405180910390fd5b8073ffffffffffffffffffffffffffffffffffffffff16610614610e17565b73ffffffffffffffffffffffffffffffffffffffff16148061064357506106428161063d610e17565b610c87565b5b610682576040517f08c379a000000000000000000000000000000000000000000000000000000000815260040161067990612282565b60405180910390fd5b61068c8383610e1f565b505050565b60086020528060005260406000206000915090505481565b6106ba6106b4610e17565b82610ed8565b6106f9576040517f08c379a00000000000000000000000000000000000000000000000000000000081526004016106f090612382565b60405180910390fd5b610704838383610fb6565b505050565b61072483838360405180602001604052806000815250610b7e565b505050565b6000806002600084815260200190815260200160002060009054906101000a900473ffffffffffffffffffffffffffffffffffffffff169050600073ffffffffffffffffffffffffffffffffffffffff168173ffffffffffffffffffffffffffffffffffffffff1614156107d2576040517f08c379a00000000000000000000000000000000000000000000000000000000081526004016107c9906122c2565b60405180910390fd5b80915050919050565b60008073ffffffffffffffffffffffffffffffffffffffff168273ffffffffffffffffffffffffffffffffffffffff16141561084c576040517f08c379a0000000000000000000000000000000000000000000000000000000008152600401610843906122a2565b60405180910390fd5b600360008373ffffffffffffffffffffffffffffffffffffffff1673ffffffffffffffffffffffffffffffffffffffff168152602001908152602001600020549050919050565b60065481565b6060600180546108a8906125d2565b80601f01602080910402602001604051908101604052809291908181526020018280546108d4906125d2565b80156109215780601f106108f657610100808354040283529160200191610921565b820191906000526020600020905b81548152906001019060200180831161090457829003601f168201915b5050505050905090565b600760009054906101000a900473ffffffffffffffffffffffffffffffffffffffff1673ffffffffffffffffffffffffffffffffffffffff163373ffffffffffffffffffffffffffffffffffffffff16146109bb576040517f08c379a00000000000000000000000000000000000000000000000000000000081526004016109b290612242565b60405180910390fd5b600660008154809291906109ce90612604565b919050555080600860006006548152602001908152602001600020819055506109f982600654611212565b5050565b610a05610e17565b73ffffffffffffffffffffffffffffffffffffffff168273ffffffffffffffffffffffffffffffffffffffff161415610a73576040517f08c379a0000000000000000000000000000000000000000000000000000000008152600401610a6a90612222565b60405180910390fd5b8060056000610a80610e17565b73ffffffffffffffffffffffffffffffffffffffff1673ffffffffffffffffffffffffffffffffffffffff16815260200190815260200160002060008473ffffffffffffffffffffffffffffffffffffffff1673ffffffffffffffffffffffffffffffffffffffff16815260200190815260200160002060006101000a81548160ff0219169083151502179055508173ffffffffffffffffffffffffffffffffffffffff16610b2d610e17565b73ffffffffffffffffffffffffffffffffffffffff167f17307eab39ab6107e8899845ad3d59bd9653f200f220920489ca2b5937696c3183604051610b729190612185565b60405180910390a35050565b610b8f610b89610e17565b83610ed8565b610bce576040517f08c379a0000000000000000000000000000000000000000000000000000000008152600401610bc590612382565b60405180910390fd5b610bda848484846113e0565b50505050565b6060610beb82610dab565b610c2a576040517f08c379a0000000000000000000000000000000000000000000000000000000008152600401610c2190612342565b60405180910390fd5b6000610c3461143c565b90506000815111610c545760405180602001604052806000815250610c7f565b80610c5e84611453565b604051602001610c6f9291906120fa565b6040516020818303038152906040525b915050919050565b6000600560008473ffffffffffffffffffffffffffffffffffffffff1673ffffffffffffffffffffffffffffffffffffffff16815260200190815260200160002060008373ffffffffffffffffffffffffffffffffffffffff1673ffffffffffffffffffffffffffffffffffffffff16815260200190815260200160002060009054906101000a900460ff16905092915050565b600760009054906101000a900473ffffffffffffffffffffffffffffffffffffffff1681565b60007f01ffc9a7000000000000000000000000000000000000000000000000000000007bffffffffffffffffffffffffffffffffffffffffffffffffffffffff1916827bffffffffffffffffffffffffffffffffffffffffffffffffffffffff1916149050919050565b60008073ffffffffffffffffffffffffffffffffffffffff166002600084815260200190815260200160002060009054906101000a900473ffffffffffffffffffffffffffffffffffffffff1673ffffffffffffffffffffffffffffffffffffffff1614159050919050565b600033905090565b816004600083815260200190815260200160002060006101000a81548173ffffffffffffffffffffffffffffffffffffffff021916908373ffffffffffffffffffffffffffffffffffffffff160217905550808273ffffffffffffffffffffffffffffffffffffffff16610e9283610729565b73ffffffffffffffffffffffffffffffffffffffff167f8c5be1e5ebec7d5bd14f71427d1e84f3dd0314c0f7b2291e5b200ac8c7c3b92560405160405180910390a45050565b6000610ee382610dab565b610f22576040517f08c379a0000000000000000000000000000000000000000000000000000000008152600401610f1990612262565b60405180910390fd5b6000610f2d83610729565b90508073ffffffffffffffffffffffffffffffffffffffff168473ffffffffffffffffffffffffffffffffffffffff161480610f9c57508373ffffffffffffffffffffffffffffffffffffffff16610f84846104f4565b73ffffffffffffffffffffffffffffffffffffffff16145b80610fad5750610fac8185610c87565b5b91505092915050565b8273ffffffffffffffffffffffffffffffffffffffff16610fd682610729565b73ffffffffffffffffffffffffffffffffffffffff161461102c576040517f08c379a000000000000000000000000000000000000000000000000000000000815260040161102390612322565b60405180910390fd5b600073ffffffffffffffffffffffffffffffffffffffff168273ffffffffffffffffffffffffffffffffffffffff16141561109c576040517f08c379a000000000000000000000000000000000000000000000000000000000815260040161109390612202565b60405180910390fd5b6110a7838383611600565b6110b2600082610e1f565b6001600360008573ffffffffffffffffffffffffffffffffffffffff1673ffffffffffffffffffffffffffffffffffffffff168152602001908152602001600020600082825461110291906124e8565b925050819055506001600360008473ffffffffffffffffffffffffffffffffffffffff1673ffffffffffffffffffffffffffffffffffffffff16815260200190815260200160002060008282546111599190612461565b92505081905550816002600083815260200190815260200160002060006101000a81548173ffffffffffffffffffffffffffffffffffffffff021916908373ffffffffffffffffffffffffffffffffffffffff160217905550808273ffffffffffffffffffffffffffffffffffffffff168473ffffffffffffffffffffffffffffffffffffffff167fddf252ad1be2c89b69c2b068fc378daa952ba7f163c4a11628f55a4df523b3ef60405160405180910390a4505050565b600073ffffffffffffffffffffffffffffffffffffffff168273ffffffffffffffffffffffffffffffffffffffff161415611282576040517f08c379a0000000000000000000000000000000000000000000000000000000008152600401611279906122e2565b60405180910390fd5b61128b81610dab565b156112cb576040517f08c379a00000000000000000000000000000000000000000000000000000000081526004016112c2906121e2565b60405180910390fd5b6112d760008383611600565b6001600360008473ffffffffffffffffffffffffffffffffffffffff1673ffffffffffffffffffffffffffffffffffffffff16815260200190815260200160002060008282546113279190612461565b92505081905550816002600083815260200190815260200160002060006101000a81548173ffffffffffffffffffffffffffffffffffffffff021916908373ffffffffffffffffffffffffffffffffffffffff160217905550808273ffffffffffffffffffffffffffffffffffffffff16600073ffffffffffffffffffffffffffffffffffffffff167fddf252ad1be2c89b69c2b068fc378daa952ba7f163c4a11628f55a4df523b3ef60405160405180910390a45050565b6113eb848484610fb6565b6113f784848484611605565b611436576040517f08c379a000000000000000000000000000000000000000000000000000000000815260040161142d906121c2565b60405180910390fd5b50505050565b606060405180602001604052806000815250905090565b6060600082141561149b576040518060400160405280600181526020017f300000000000000000000000000000000000000000000000000000000000000081525090506115fb565b600082905060005b600082146114cd5780806114b690612604565b915050600a826114c691906124b7565b91506114a3565b60008167ffffffffffffffff81111561150f577f4e487b7100000000000000000000000000000000000000000000000000000000600052604160045260246000fd5b6040519080825280601f01601f1916602001820160405280156115415781602001600182028036833780820191505090505b5090505b600085146115f45760018261155a91906124e8565b9150600a85611569919061264d565b60306115759190612461565b60f81b8183815181106115b1577f4e487b7100000000000000000000000000000000000000000000000000000000600052603260045260246000fd5b60200101907effffffffffffffffffffffffffffffffffffffffffffffffffffffffffffff1916908160001a905350600a856115ed91906124b7565b9450611545565b8093505050505b919050565b505050565b60006116268473ffffffffffffffffffffffffffffffffffffffff1661179c565b1561178f578373ffffffffffffffffffffffffffffffffffffffff1663150b7a0261164f610e17565b8786866040518563ffffffff1660e01b81526004016116719493929190612139565b602060405180830381600087803b15801561168b57600080fd5b505af19250505080156116bc57506040513d601f19601f820116820180604052508101906116b99190611a50565b60015b61173f573d80600081146116ec576040519150601f19603f3d011682016040523d82523d6000602084013e6116f1565b606091505b50600081511415611737576040517f08c379a000000000000000000000000000000000000000000000000000000000815260040161172e906121c2565b60405180910390fd5b805181602001fd5b63150b7a0260e01b7bffffffffffffffffffffffffffffffffffffffffffffffffffffffff1916817bffffffffffffffffffffffffffffffffffffffffffffffffffffffff191614915050611794565b600190505b949350505050565b600080823b905060008111915050919050565b60006117c26117bd846123ee565b6123bd565b9050828152602081018484840111156117da57600080fd5b6117e5848285612590565b509392505050565b6000813590506117fc8161274b565b92915050565b60008135905061181181612762565b92915050565b60008135905061182681612779565b92915050565b60008151905061183b81612779565b92915050565b600082601f83011261185257600080fd5b81356118628482602086016117af565b91505092915050565b60008135905061187a81612790565b92915050565b60006020828403121561189257600080fd5b60006118a0848285016117ed565b91505092915050565b600080604083850312156118bc57600080fd5b60006118ca858286016117ed565b92505060206118db858286016117ed565b9150509250929050565b6000806000606084860312156118fa57600080fd5b6000611908868287016117ed565b9350506020611919868287016117ed565b925050604061192a8682870161186b565b9150509250925092565b6000806000806080858703121561194a57600080fd5b6000611958878288016117ed565b9450506020611969878288016117ed565b935050604061197a8782880161186b565b925050606085013567ffffffffffffffff81111561199757600080fd5b6119a387828801611841565b91505092959194509250565b600080604083850312156119c257600080fd5b60006119d0858286016117ed565b92505060206119e185828601611802565b9150509250929050565b600080604083850312156119fe57600080fd5b6000611a0c858286016117ed565b9250506020611a1d8582860161186b565b9150509250929050565b600060208284031215611a3957600080fd5b6000611a4784828501611817565b91505092915050565b600060208284031215611a6257600080fd5b6000611a708482850161182c565b91505092915050565b600060208284031215611a8b57600080fd5b6000611a998482850161186b565b91505092915050565b611aab8161251c565b82525050565b611aba8161252e565b82525050565b6000611acb8261241e565b611ad58185612434565b9350611ae581856020860161259f565b611aee8161273a565b840191505092915050565b6000611b0482612429565b611b0e8185612445565b9350611b1e81856020860161259f565b611b278161273a565b840191505092915050565b6000611b3d82612429565b611b478185612456565b9350611b5781856020860161259f565b80840191505092915050565b6000611b70603283612445565b91507f4552433732313a207472616e7366657220746f206e6f6e20455243373231526560008301527f63656976657220696d706c656d656e74657200000000000000000000000000006020830152604082019050919050565b6000611bd6601c83612445565b91507f4552433732313a20746f6b656e20616c7265616479206d696e746564000000006000830152602082019050919050565b6000611c16602483612445565b91507f4552433732313a207472616e7366657220746f20746865207a65726f2061646460008301527f72657373000000000000000000000000000000000000000000000000000000006020830152604082019050919050565b6000611c7c601983612445565b91507f4552433732313a20617070726f766520746f2063616c6c6572000000000000006000830152602082019050919050565b6000611cbc602983612445565b91507f4e6f62656c43657274696669636174653a206f6e6c79436f6e74726f6c6c657260008301527f2066756e6374696f6e00000000000000000000000000000000000000000000006020830152604082019050919050565b6000611d22602c83612445565b91507f4552433732313a206f70657261746f7220717565727920666f72206e6f6e657860008301527f697374656e7420746f6b656e00000000000000000000000000000000000000006020830152604082019050919050565b6000611d88603883612445565b91507f4552433732313a20617070726f76652063616c6c6572206973206e6f74206f7760008301527f6e6572206e6f7220617070726f76656420666f7220616c6c00000000000000006020830152604082019050919050565b6000611dee602a83612445565b91507f4552433732313a2062616c616e636520717565727920666f7220746865207a6560008301527f726f2061646472657373000000000000000000000000000000000000000000006020830152604082019050919050565b6000611e54602983612445565b91507f4552433732313a206f776e657220717565727920666f72206e6f6e657869737460008301527f656e7420746f6b656e00000000000000000000000000000000000000000000006020830152604082019050919050565b6000611eba602083612445565b91507f4552433732313a206d696e7420746f20746865207a65726f20616464726573736000830152602082019050919050565b6000611efa602c83612445565b91507f4552433732313a20617070726f76656420717565727920666f72206e6f6e657860008301527f697374656e7420746f6b656e00000000000000000000000000000000000000006020830152604082019050919050565b6000611f60602983612445565b91507f4552433732313a207472616e73666572206f6620746f6b656e2074686174206960008301527f73206e6f74206f776e00000000000000000000000000000000000000000000006020830152604082019050919050565b6000611fc6602f83612445565b91507f4552433732314d657461646174613a2055524920717565727920666f72206e6f60008301527f6e6578697374656e7420746f6b656e00000000000000000000000000000000006020830152604082019050919050565b600061202c602183612445565b91507f4552433732313a20617070726f76616c20746f2063757272656e74206f776e6560008301527f72000000000000000000000000000000000000000000000000000000000000006020830152604082019050919050565b6000612092603183612445565b91507f4552433732313a207472616e736665722063616c6c6572206973206e6f74206f60008301527f776e6572206e6f7220617070726f7665640000000000000000000000000000006020830152604082019050919050565b6120f481612586565b82525050565b60006121068285611b32565b91506121128284611b32565b91508190509392505050565b60006020820190506121336000830184611aa2565b92915050565b600060808201905061214e6000830187611aa2565b61215b6020830186611aa2565b61216860408301856120eb565b818103606083015261217a8184611ac0565b905095945050505050565b600060208201905061219a6000830184611ab1565b92915050565b600060208201905081810360008301526121ba8184611af9565b905092915050565b600060208201905081810360008301526121db81611b63565b9050919050565b600060208201905081810360008301526121fb81611bc9565b9050919050565b6000602082019050818103600083015261221b81611c09565b9050919050565b6000602082019050818103600083015261223b81611c6f565b9050919050565b6000602082019050818103600083015261225b81611caf565b9050919050565b6000602082019050818103600083015261227b81611d15565b9050919050565b6000602082019050818103600083015261229b81611d7b565b9050919050565b600060208201905081810360008301526122bb81611de1565b9050919050565b600060208201905081810360008301526122db81611e47565b9050919050565b600060208201905081810360008301526122fb81611ead565b9050919050565b6000602082019050818103600083015261231b81611eed565b9050919050565b6000602082019050818103600083015261233b81611f53565b9050919050565b6000602082019050818103600083015261235b81611fb9565b9050919050565b6000602082019050818103600083015261237b8161201f565b9050919050565b6000602082019050818103600083015261239b81612085565b9050919050565b60006020820190506123b760008301846120eb565b92915050565b6000604051905081810181811067ffffffffffffffff821117156123e4576123e361270b565b5b8060405250919050565b600067ffffffffffffffff8211156124095761240861270b565b5b601f19601f8301169050602081019050919050565b600081519050919050565b600081519050919050565b600082825260208201905092915050565b600082825260208201905092915050565b600081905092915050565b600061246c82612586565b915061247783612586565b9250827fffffffffffffffffffffffffffffffffffffffffffffffffffffffffffffffff038211156124ac576124ab61267e565b5b828201905092915050565b60006124c282612586565b91506124cd83612586565b9250826124dd576124dc6126ad565b5b828204905092915050565b60006124f382612586565b91506124fe83612586565b9250828210156125115761251061267e565b5b828203905092915050565b600061252782612566565b9050919050565b60008115159050919050565b60007fffffffff0000000000000000000000000000000000000000000000000000000082169050919050565b600073ffffffffffffffffffffffffffffffffffffffff82169050919050565b6000819050919050565b82818337600083830152505050565b60005b838110156125bd5780820151818401526020810190506125a2565b838111156125cc576000848401525b50505050565b600060028204905060018216806125ea57607f821691505b602082108114156125fe576125fd6126dc565b5b50919050565b600061260f82612586565b91507fffffffffffffffffffffffffffffffffffffffffffffffffffffffffffffffff8214156126425761264161267e565b5b600182019050919050565b600061265882612586565b915061266383612586565b925082612673576126726126ad565b5b828206905092915050565b7f4e487b7100000000000000000000000000000000000000000000000000000000600052601160045260246000fd5b7f4e487b7100000000000000000000000000000000000000000000000000000000600052601260045260246000fd5b7f4e487b7100000000000000000000000000000000000000000000000000000000600052602260045260246000fd5b7f4e487b7100000000000000000000000000000000000000000000000000000000600052604160045260246000fd5b6000601f19601f8301169050919050565b6127548161251c565b811461275f57600080fd5b50565b61276b8161252e565b811461277657600080fd5b50565b6127828161253a565b811461278d57600080fd5b50565b61279981612586565b81146127a457600080fd5b5056fea2646970667358221220a9c3f9b717e8f94cb231897fd9db5182944c09b19737135e9ec3ef7a9e2713ac64736f6c63430008000033",
  "immutableReferences": {},
  "source": "pragma solidity ^0.8.0;\n\nimport \"openzeppelin-solidity/contracts/token/ERC721/ERC721.sol\";\n\ncontract NobelCertificate is ERC721{\n    uint256 public tokenIds;\n\n    address public controller;\n\n    mapping( uint256 => uint256 ) public contributions;\n\n    constructor (\n        string memory _name,\n        string memory _symbol\n    ) ERC721(_name, _symbol) {\n        controller = msg.sender;\n    }\n\n    modifier onlyController() {\n        require(msg.sender == controller, \"NobelCertificate: onlyController function\");\n        _;\n    }\n\n    function generateCertificate(address _to, uint256 _contributions) public onlyController {\n        tokenIds++;\n        contributions[tokenIds] = _contributions;\n        _mint(_to, tokenIds);\n    }\n}",
  "sourcePath": "/home/mihir/Desktop/blockchain-batch-2/testing-with-chai/contracts/NobelCertificate.sol",
  "compiler": {
    "name": "solc",
    "version": "0.8.0+commit.c7dfd78e.Emscripten.clang"
  },
  "schemaVersion": "3.4.0",
  "updatedAt": "2021-06-22T06:05:18.604Z",
  "devdoc": {
    "kind": "dev",
    "methods": {
      "approve(address,uint256)": {
        "details": "See {IERC721-approve}."
      },
      "balanceOf(address)": {
        "details": "See {IERC721-balanceOf}."
      },
      "getApproved(uint256)": {
        "details": "See {IERC721-getApproved}."
      },
      "isApprovedForAll(address,address)": {
        "details": "See {IERC721-isApprovedForAll}."
      },
      "name()": {
        "details": "See {IERC721Metadata-name}."
      },
      "ownerOf(uint256)": {
        "details": "See {IERC721-ownerOf}."
      },
      "safeTransferFrom(address,address,uint256)": {
        "details": "See {IERC721-safeTransferFrom}."
      },
      "safeTransferFrom(address,address,uint256,bytes)": {
        "details": "See {IERC721-safeTransferFrom}."
      },
      "setApprovalForAll(address,bool)": {
        "details": "See {IERC721-setApprovalForAll}."
      },
      "supportsInterface(bytes4)": {
        "details": "See {IERC165-supportsInterface}."
      },
      "symbol()": {
        "details": "See {IERC721Metadata-symbol}."
      },
      "tokenURI(uint256)": {
        "details": "See {IERC721Metadata-tokenURI}."
      },
      "transferFrom(address,address,uint256)": {
        "details": "See {IERC721-transferFrom}."
      }
    },
    "version": 1
  },
  "userdoc": {
    "kind": "user",
    "methods": {},
    "version": 1
  }
}